


ARM Macro Assembler    Page 1 


    1 00000000         ;/******************************************************
                       ***********************/
    2 00000000         ; OSasm.s: low-level OS commands, written in assembly   
                                           */
    3 00000000         ; Runs on LM4F120/TM4C123
    4 00000000         ; A very simple real time operating system with minimal 
                       features.
    5 00000000         ; Daniel Valvano
    6 00000000         ; January 29, 2015
    7 00000000         ; Brandon Boesch
    8 00000000         ; Ce Wei Januaray 29, 2016
    9 00000000         ;
   10 00000000         ; This example accompanies the book
   11 00000000         ;  "Embedded Systems: Real Time Interfacing to ARM Corte
                       x M Microcontrollers",
   12 00000000         ;  ISBN: 978-1463590154, Jonathan Valvano, copyright (c)
                        2015
   13 00000000         ;
   14 00000000         ;  Programs 4.4 through 4.12, section 4.2
   15 00000000         ;
   16 00000000         ;Copyright 2015 by Jonathan W. Valvano, valvano@mail.ute
                       xas.edu
   17 00000000         ;    You may use, edit, run or distribute this file
   18 00000000         ;    as long as the above copyright notice remains
   19 00000000         ; THIS SOFTWARE IS PROVIDED "AS IS".  NO WARRANTIES, WHE
                       THER EXPRESS, IMPLIED
   20 00000000         ; OR STATUTORY, INCLUDING, BUT NOT LIMITED TO, IMPLIED W
                       ARRANTIES OF
   21 00000000         ; MERCHANTABILITY AND FITNESS FOR A PARTICULAR PURPOSE A
                       PPLY TO THIS SOFTWARE.
   22 00000000         ; VALVANO SHALL NOT, IN ANY CIRCUMSTANCES, BE LIABLE FOR
                        SPECIAL, INCIDENTAL,
   23 00000000         ; OR CONSEQUENTIAL DAMAGES, FOR ANY REASON WHATSOEVER.
   24 00000000         ; For more information about my classes, my research, an
                       d my books, see
   25 00000000         ; http://users.ece.utexas.edu/~valvano/
   26 00000000         ; */
   27 00000000         
   28 00000000                 AREA             |.text|, CODE, READONLY, ALIGN=
2
   29 00000000                 THUMB
   30 00000000                 REQUIRE8
   31 00000000                 PRESERVE8
   32 00000000         
   33 00000000                 EXTERN           RunPt       ; currently running
                                                             thread, it is a po
                                                            inter!!!
   34 00000000                 EXTERN           OtherTrigger ; OS_Suspend, OS_S
                                                            leep, OS_Kill will 
                                                            set it to 1
   35 00000000                 EXTERN           ThreadCounter ; use it when Oth
                                                            erTrigger is NOT se
                                                            t to go through the
                                                             circle to decrease
                                                             the sleepCounter
   36 00000000                 EXPORT           StartOS
   37 00000000                 EXPORT           SysTick_Handler
   38 00000000                 EXPORT           OS_Wait_ASM ; semaphore
   39 00000000                 EXPORT           OS_Signal_ASM



ARM Macro Assembler    Page 2 


   40 00000000                 EXPORT           OS_bWait_ASM ; binary semaphore
                                                            
   41 00000000                 EXPORT           OS_bSignal_ASM
   42 00000000         
   43 00000000         ;The systick handler just do the normal context switch o
                       r jump the sleep threads
   44 00000000         ; GO through the whole TCBs to 
   45 00000000         SysTick_Handler                      ; 1) Saves R0-R3,R1
                                                            2,LR,PC,PSR ------>
                                                             C will handle it? 
                                                            ---- handler mode V
                                                            S thread mode
   46 00000000 B672            CPSID            I           ; 2) Prevent interr
                                                            upt during switch
   47 00000002 E92D 0FF0       PUSH             {R4-R11}    ; 3) Save remaining
                                                             regs r4-11
   48 00000006         ;The sp will be stored in the TCB.... 
   49 00000006 4821            LDR              R0, =RunPt  ; 4) R0=pointer to 
                                                            RunPt, old thread
   50 00000008 6801            LDR              R1, [R0]    ;    R1 = RunPt, th
                                                            e actual TCB addres
                                                            s
   51 0000000A F8C1 D000       STR              SP, [R1]    ; 5) Save SP into T
                                                            CB(pointed by the R
                                                            unPt)
   52 0000000E         ; skip the sleeping threads, must not all are sleeping!!
                       !!!
   53 0000000E         Sleeping
   54 0000000E 6849            LDR              R1, [R1, #4] ; 6) sleep, contin
                                                            ue to find next pos
                                                            sible runnable TCB,
                                                             R1 is the pointer'
                                                            s value(address)
   55 00000010 688A            LDR              R2, [R1, #8] ;see if next's sle
                                                            epCounter is not ze
                                                            ro
   56 00000012 2A00            CMP              R2, #0      ;
   57 00000014 D1FB            BNE              Sleeping    ;
   58 00000016         ; come out when runnable TCB
   59 00000016 6001            STR              R1, [R0]    ;    RunPt = R1
   60 00000018         ; set the stack pointer to the sp of next TCB
   61 00000018 F8D1 D000       LDR              SP, [R1]    ; 7) new thread SP;
                                                             SP = RunPt->sp;
   62 0000001C E8BD 0FF0       POP              {R4-R11}    ; 8) restore regs r
                                                            4-11
   63 00000020 B662            CPSIE            I           ; 9) tasks run with
                                                             interrupts enabled
                                                            
   64 00000022 4770            BX               LR          ; 10) restore R0-R3
                                                            ,R12,LR,PC,PSR ----
                                                            --> the C will hand
                                                            le it? --- handler 
                                                            mode to thread mode
                                                            
   65 00000024         
   66 00000024         
   67 00000024         StartOS
   68 00000024 4819            LDR              R0, =RunPt  ; currently running
                                                             thread



ARM Macro Assembler    Page 3 


   69 00000026 6802            LDR              R2, [R0]    ; R2 = value of Run
                                                            Pt
   70 00000028 F8D2 D000       LDR              SP, [R2]    ; new thread SP; SP
                                                             = RunPt->stackPoin
                                                            ter;
   71 0000002C E8BD 0FF0       POP              {R4-R11}    ; restore regs r4-1
                                                            1
   72 00000030 BC0F            POP              {R0-R3}     ; restore regs r0-3
                                                            
   73 00000032 F85D CB04       POP              {R12}       ; restore reg r12, 
                                                            make sure r0-r3 and
                                                             r12 will not effec
                                                            t stack
   74 00000036 F85D EB04       POP              {LR}        ; discard LR from i
                                                            nitial stack
   75 0000003A F85D EB04       POP              {LR}        ; start location, P
                                                            C
   76 0000003E BC02            POP              {R1}        ; discard PSR
   77 00000040 B662            CPSIE            I           ; Enable interrupts
                                                             at processor level
                                                            
   78 00000042         ; thread mode, works fine............
   79 00000042 4770            BX               LR          ; start first threa
                                                            d, IF BX will resto
                                                            re some wrong thing
                                                            s??? we have alread
                                                            y pop r0-r3,r12 and
                                                             lr things
   80 00000044         
   81 00000044         
   82 00000044         OS_Wait_ASM
   83 00000044 E850 1F00       LDREX            R1, [R0]    ;Counter
   84 00000048 3901            SUBS             R1, #1      ;Counter - 1
   85 0000004A BF5C            ITT              PL          ;OK if >= 0
   86 0000004C E840 1200       STREXPL          R2, R1, [R0] ;try update
   87 00000050 2A00            CMPPL            R2, #0      ;succeed
   88 00000052 D1FE            BNE              OS_Wait_ASM ;no, try again
   89 00000054 4770            BX               LR
   90 00000056         
   91 00000056         
   92 00000056         OS_Signal_ASM
   93 00000056 E850 1F00       LDREX            R1, [R0]    ;Counter
   94 0000005A F101 0101       ADD              R1, #1      ;Counter + 1
   95 0000005E E840 1200       STREX            R2, R1, [R0] ;try update
   96 00000062 2A00            CMP              R2, #0      ;succeed
   97 00000064 D1FE            BNE              OS_Signal_ASM ;try again
   98 00000066 4770            BX               LR
   99 00000068         
  100 00000068         OS_bWait_ASM
  101 00000068 E850 1F00       LDREX            R1, [R0]    ;Counter
  102 0000006C 3901            SUBS             R1, #1      ;Counter - 1, count
                                                            er will be no bigge
                                                            r than 1 according 
                                                            to signal
  103 0000006E BF5C            ITT              PL          ;OK if >= 0, 
  104 00000070 E840 1200       STREXPL          R2, R1, [R0] ;try update
  105 00000074 2A00            CMPPL            R2, #0      ;succeed?
  106 00000076 D1FE            BNE              OS_bWait_ASM ;no, try again
  107 00000078 4770            BX               LR



ARM Macro Assembler    Page 4 


  108 0000007A         
  109 0000007A         
  110 0000007A         OS_bSignal_ASM
  111 0000007A E850 1F00       LDREX            R1, [R0]    ;Counter
  112 0000007E F04F 0101       MOV              R1, #1      ;Counter = 1
  113 00000082 E840 1200       STREX            R2, R1, [R0] ;try update
  114 00000086 2A00            CMP              R2, #0      ;succeed?
  115 00000088 D1FE            BNE              OS_bSignal_ASM ;try again
  116 0000008A 4770            BX               LR
  117 0000008C         
  118 0000008C         
  119 0000008C                 ALIGN
  120 0000008C                 END
              00000000 
Command Line: --debug --xref --cpu=Cortex-M4 --apcs=interwork --depend=.\osasm.
d -o.\osasm.o -IC:\Keil\ARM\RV31\INC -IC:\Keil\ARM\CMSIS\Include -IC:\Keil\ARM\
Inc\Luminary --predefine="__EVAL SETA 1" --predefine="__MICROLIB SETA 1" --list
=.\osasm.lst OSasm.s



ARM Macro Assembler    Page 1 Alphabetic symbol ordering
Relocatable symbols

.text 00000000

Symbol: .text
   Definitions
      At line 28 in file OSasm.s
   Uses
      None
Comment: .text unused
OS_Signal_ASM 00000056

Symbol: OS_Signal_ASM
   Definitions
      At line 92 in file OSasm.s
   Uses
      At line 39 in file OSasm.s
      At line 97 in file OSasm.s

OS_Wait_ASM 00000044

Symbol: OS_Wait_ASM
   Definitions
      At line 82 in file OSasm.s
   Uses
      At line 38 in file OSasm.s
      At line 88 in file OSasm.s

OS_bSignal_ASM 0000007A

Symbol: OS_bSignal_ASM
   Definitions
      At line 110 in file OSasm.s
   Uses
      At line 41 in file OSasm.s
      At line 115 in file OSasm.s

OS_bWait_ASM 00000068

Symbol: OS_bWait_ASM
   Definitions
      At line 100 in file OSasm.s
   Uses
      At line 40 in file OSasm.s
      At line 106 in file OSasm.s

Sleeping 0000000E

Symbol: Sleeping
   Definitions
      At line 53 in file OSasm.s
   Uses
      At line 57 in file OSasm.s
Comment: Sleeping used once
StartOS 00000024

Symbol: StartOS
   Definitions
      At line 67 in file OSasm.s
   Uses
      At line 36 in file OSasm.s



ARM Macro Assembler    Page 2 Alphabetic symbol ordering
Relocatable symbols

Comment: StartOS used once
SysTick_Handler 00000000

Symbol: SysTick_Handler
   Definitions
      At line 45 in file OSasm.s
   Uses
      At line 37 in file OSasm.s
Comment: SysTick_Handler used once
8 symbols



ARM Macro Assembler    Page 1 Alphabetic symbol ordering
External symbols

OtherTrigger 00000000

Symbol: OtherTrigger
   Definitions
      At line 34 in file OSasm.s
   Uses
      None
Comment: OtherTrigger unused
RunPt 00000000

Symbol: RunPt
   Definitions
      At line 33 in file OSasm.s
   Uses
      At line 49 in file OSasm.s
      At line 68 in file OSasm.s

ThreadCounter 00000000

Symbol: ThreadCounter
   Definitions
      At line 35 in file OSasm.s
   Uses
      None
Comment: ThreadCounter unused
3 symbols
345 symbols in table
