ARM Linker, 5.03 [Build 76] [MDK-ARM Professional]

==============================================================================

Section Cross References

    startup.o(STACK) refers (Special) to heapauxi.o(.text) for __use_two_region_memory
    startup.o(HEAP) refers (Special) to heapauxi.o(.text) for __use_two_region_memory
    startup.o(RESET) refers (Special) to heapauxi.o(.text) for __use_two_region_memory
    startup.o(RESET) refers to startup.o(STACK) for StackMem
    startup.o(RESET) refers to osasm.o(.text) for SysTick_Handler
    startup.o(RESET) refers to uart.o(i.UART0_Handler) for UART0_Handler
    startup.o(RESET) refers to adc.o(i.ADC0Seq3_Handler) for ADC0Seq3_Handler
    startup.o(RESET) refers to ping.o(i.Timer1A_Handler) for Timer1A_Handler
    startup.o(RESET) refers to buttons.o(i.GPIOPortF_Handler) for GPIOPortF_Handler
    startup.o(RESET) refers to ping.o(i.Timer3A_Handler) for Timer3A_Handler
    startup.o(RESET) refers to can0.o(i.CAN0_Handler) for CAN0_Handler
    startup.o(RESET) refers to timer4.o(i.Timer4A_Handler) for Timer4A_Handler
    startup.o(RESET) refers to __main.o(!!!main) for __main
    startup.o(.text) refers (Special) to heapauxi.o(.text) for __use_two_region_memory
    startup.o(.text) refers to startup.o(HEAP) for HeapMem
    startup.o(.text) refers to startup.o(STACK) for StackMem
    os.o(i.OS_AddAperiodicThread) refers to startup.o(.text) for StartCritical
    os.o(i.OS_AddAperiodicThread) refers to timer4.o(i.Timer4A_Enable) for Timer4A_Enable
==============================================================================

Removing Unused input sections from the image.

    Removing os.o(i.OS_AddButtonTask), (42 bytes).
    Removing os.o(i.OS_ClearMsTime), (36 bytes).
    Removing os.o(i.OS_Id), (12 bytes).
    Removing os.o(i.OS_Kill), (200 bytes).
    Removing os.o(i.OS_MailBox_Recv), (36 bytes).
    Removing os.o(i.OS_MailBox_Send), (36 bytes).
    Removing os.o(i.OS_MsTime), (52 bytes).
    Removing os.o(i.OS_Time), (12 bytes).
    Removing osasm.o(DATA), (4 bytes).
    Removing uart.o(i.UART_InUHex), (108 bytes).
    Removing uart.o(i.UART_OutString), (24 bytes).
    Removing uart.o(i.UART_OutStringNL), (16 bytes).
    Removing uart.o(i.UART_OutUDec), (42 bytes).
    Removing uart.o(i.UART_OutUDecNL), (16 bytes).
    Removing uart.o(i.UART_OutUHex), (52 bytes).
    Removing retarget.o(i.fgetc), (10 bytes).
    Removing buttons.o(i.SW1_Init), (252 bytes).
    Removing buttons.o(i.SW2_Init), (280 bytes).
==============================================================================

Image Symbol Table

    Local Symbols

    Symbol Name                              Value     Ov Type        Size  Object(Section)

    RESET                                    0x00000000   Section      644  startup.o(RESET)
    ../clib/angel/boardlib.s                 0x00000000   Number         0  boardshut.o ABSOLUTE
    ../clib/angel/boardlib.s                 0x00000000   Number         0  boardinit1.o ABSOLUTE
    ../clib/angel/boardlib.s                 0x00000000   Number         0  boardinit2.o ABSOLUTE
    ../clib/angel/boardlib.s                 0x00000000   Number         0  boardinit3.o ABSOLUTE
    ../clib/angel/dczerorl.s                 0x00000000   Number         0  __dczerorl.o ABSOLUTE
    ../clib/angel/handlers.s                 0x00000000   Number         0  __scatter_zi.o ABSOLUTE
    ../clib/angel/kernel.s                   0x00000000   Number         0  rtentry4.o ABSOLUTE
    ../clib/angel/kernel.s                   0x00000000   Number         0  rtentry2.o ABSOLUTE
    ../clib/angel/kernel.s                   0x00000000   Number         0  rtexit.o ABSOLUTE
    ../clib/angel/kernel.s                   0x00000000   Number         0  rtexit2.o ABSOLUTE
    ../clib/angel/kernel.s                   0x00000000   Number         0  rtentry.o ABSOLUTE
    ../clib/angel/rt.s                       0x00000000   Number         0  rt_raise.o ABSOLUTE
    ../clib/angel/scatter.s                  0x00000000   Number         0  __scatter.o ABSOLUTE
    ../clib/angel/startup.s                  0x00000000   Number         0  __main.o ABSOLUTE
    ../clib/angel/sys.s                      0x00000000   Number         0  indicate_semi.o ABSOLUTE
    ../clib/angel/sys.s                      0x00000000   Number         0  libspace.o ABSOLUTE
    ../clib/angel/sys.s                      0x00000000   Number         0  use_no_semi.o ABSOLUTE
    ../clib/angel/sys.s                      0x00000000   Number         0  sys_stackheap_outer.o ABSOLUTE
    ../clib/angel/sysapp.c                   0x00000000   Number         0  sys_command.o ABSOLUTE
    ../clib/angel/sysapp.c                   0x00000000   Number         0  sys_wrch.o ABSOLUTE
    ../clib/angel/sysapp.c                   0x00000000   Number         0  sys_exit.o ABSOLUTE
    ../clib/armsys.c                         0x00000000   Number         0  argv_veneer.o ABSOLUTE
    ../clib/armsys.c                         0x00000000   Number         0  argv_veneer.o ABSOLUTE
    ../clib/armsys.c                         0x00000000   Number         0  _get_argv_nomalloc.o ABSOLUTE
    ../clib/armsys.c                         0x00000000   Number         0  no_argv.o ABSOLUTE
    ../clib/heapalloc.c                      0x00000000   Number         0  hrguard.o ABSOLUTE
    ../clib/heapaux.c                        0x00000000   Number         0  heapauxi.o ABSOLUTE
    ../clib/libinit.s                        0x00000000   Number         0  libinit2.o ABSOLUTE
    ../clib/libinit.s                        0x00000000   Number         0  libshutdown.o ABSOLUTE
    ../clib/libinit.s                        0x00000000   Number         0  libinit.o ABSOLUTE
    ../clib/libinit.s                        0x00000000   Number         0  libshutdown2.o ABSOLUTE
    ../clib/memcpset.s                       0x00000000   Number         0  strcmpv7m.o ABSOLUTE
    ../clib/misc.s                           0x00000000   Number         0  printf_stubs.o ABSOLUTE
    ../clib/printf.c                         0x00000000   Number         0  __printf_flags_ss_wp.o ABSOLUTE
    ../clib/printf.c                         0x00000000   Number         0  __printf_ss_wp.o ABSOLUTE
    ../clib/printf.c                         0x00000000   Number         0  __printf_flags_wp.o ABSOLUTE
    ../clib/printf.c                         0x00000000   Number         0  __printf_wp.o ABSOLUTE
    ../clib/printf.c                         0x00000000   Number         0  __printf_ss.o ABSOLUTE
    ../clib/printf.c                         0x00000000   Number         0  __printf_flags.o ABSOLUTE
    ../clib/printf.c                         0x00000000   Number         0  _printf_dec.o ABSOLUTE
    ../clib/printf.c                         0x00000000   Number         0  _printf_str.o ABSOLUTE
    ../clib/printf.c                         0x00000000   Number         0  __printf_nopercent.o ABSOLUTE
    ../clib/printf.c                         0x00000000   Number         0  __printf.o ABSOLUTE
    ../clib/printf.c                         0x00000000   Number         0  _printf_char_common.o ABSOLUTE
    ../clib/printf.c                         0x00000000   Number         0  noretval__2printf.o ABSOLUTE
    ../clib/printf.c                         0x00000000   Number         0  _printf_char_file.o ABSOLUTE
    ../clib/printf.c                         0x00000000   Number         0  _printf_char.o ABSOLUTE
    ../clib/printf.c                         0x00000000   Number         0  _printf_intcommon.o ABSOLUTE
    ../clib/printf.c                         0x00000000   Number         0  __2printf.o ABSOLUTE
    ../clib/printf.c                         0x00000000   Number         0  __printf_flags_ss.o ABSOLUTE
    ../clib/printf_percent.s                 0x00000000   Number         0  _printf_s.o ABSOLUTE
    ../clib/printf_percent.s                 0x00000000   Number         0  _printf_percent_end.o ABSOLUTE
    ../clib/printf_percent.s                 0x00000000   Number         0  _printf_percent.o ABSOLUTE
    ../clib/printf_percent.s                 0x00000000   Number         0  _printf_u.o ABSOLUTE
    ../clib/printf_percent.s                 0x00000000   Number         0  _printf_d.o ABSOLUTE
    ../clib/signal.c                         0x00000000   Number         0  defsig_exit.o ABSOLUTE
    ../clib/signal.c                         0x00000000   Number         0  defsig_rtmem_formal.o ABSOLUTE
    ../clib/signal.c                         0x00000000   Number         0  defsig_pvfn_inner.o ABSOLUTE
    ../clib/signal.c                         0x00000000   Number         0  defsig_rtmem_outer.o ABSOLUTE
    ../clib/signal.c                         0x00000000   Number         0  defsig_stak_inner.o ABSOLUTE
    ../clib/signal.c                         0x00000000   Number         0  defsig_rtmem_inner.o ABSOLUTE
    ../clib/signal.c                         0x00000000   Number         0  defsig_rtred_inner.o ABSOLUTE
    ../clib/signal.c                         0x00000000   Number         0  defsig_fpe_inner.o ABSOLUTE
    ../clib/signal.c                         0x00000000   Number         0  defsig_abrt_inner.o ABSOLUTE
    ../clib/signal.c                         0x00000000   Number         0  defsig_general.o ABSOLUTE
    ../clib/signal.c                         0x00000000   Number         0  defsig_segv_inner.o ABSOLUTE
    ../clib/signal.c                         0x00000000   Number         0  defsig_other.o ABSOLUTE
    ../clib/signal.c                         0x00000000   Number         0  __raise.o ABSOLUTE
    ../clib/signal.c                         0x00000000   Number         0  defsig_cppl_inner.o ABSOLUTE
    ../clib/signal.s                         0x00000000   Number         0  defsig.o ABSOLUTE
    ../clib/stdlib.c                         0x00000000   Number         0  exit.o ABSOLUTE
    ../clib/string.c                         0x00000000   Number         0  strlen.o ABSOLUTE
    ../fplib/fpinit.s                        0x00000000   Number         0  fpinit.o ABSOLUTE
    ADC.c                                    0x00000000   Number         0  adc.o ABSOLUTE
    Buttons.c                                0x00000000   Number         0  buttons.o ABSOLUTE
    CAN_4C123\can.c                          0x00000000   Number         0  can.o ABSOLUTE
    CAN_4C123\can0.c                         0x00000000   Number         0  can0.o ABSOLUTE
    CAN_4C123\interrupt.c                    0x00000000   Number         0  interrupt.o ABSOLUTE
    IR.c                                     0x00000000   Number         0  ir.o ABSOLUTE
    Interpreter.c                            0x00000000   Number         0  interpreter.o ABSOLUTE
    Lab6.c                                   0x00000000   Number         0  lab6.o ABSOLUTE
    OS.c                                     0x00000000   Number         0  os.o ABSOLUTE
    OSasm.s                                  0x00000000   Number         0  osasm.o ABSOLUTE
    PLL.c                                    0x00000000   Number         0  pll.o ABSOLUTE
    PWM.c                                    0x00000000   Number         0  pwm.o ABSOLUTE
    Ping.c                                   0x00000000   Number         0  ping.o ABSOLUTE
    Profiler.c                               0x00000000   Number         0  profiler.o ABSOLUTE
    Retarget.c                               0x00000000   Number         0  retarget.o ABSOLUTE
    ST7735.c                                 0x00000000   Number         0  st7735.o ABSOLUTE
    ST7735.c                                 0x00000000   Number         0  st7735.o ABSOLUTE
    SysTick.c                                0x00000000   Number         0  systick.o ABSOLUTE
    Timer4.c                                 0x00000000   Number         0  timer4.o ABSOLUTE
    Timer5.c                                 0x00000000   Number         0  timer5.o ABSOLUTE
    UART.c                                   0x00000000   Number         0  uart.o ABSOLUTE
    cr4_fft_64_stm32.s                       0x00000000   Number         0  cr4_fft_64_stm32.o ABSOLUTE
    dc.s                                     0x00000000   Number         0  dc.o ABSOLUTE
    startup.s                                0x00000000   Number         0  startup.o ABSOLUTE
    !!!main                                  0x00000284   Section        8  __main.o(!!!main)
    !!!scatter                               0x0000028c   Section       52  __scatter.o(!!!scatter)
    !!dczerorl                               0x000002c0   Section       58  __dczerorl.o(!!dczerorl)
    !!handler_zi                             0x000002fc   Section       28  __scatter_zi.o(!!handler_zi)
    .ARM.Collect$$_printf_percent$$00000000  0x00000318   Section        0  _printf_percent.o(.ARM.Collect$$_printf_percent$$00000000)
    .ARM.Collect$$_printf_percent$$00000009  0x00000318   Section        6  _printf_d.o(.ARM.Collect$$_printf_percent$$00000009)
    .ARM.Collect$$_printf_percent$$0000000A  0x0000031e   Section        6  _printf_u.o(.ARM.Collect$$_printf_percent$$0000000A)
    .ARM.Collect$$_printf_percent$$00000014  0x00000324   Section        6  _printf_s.o(.ARM.Collect$$_printf_percent$$00000014)
    .ARM.Collect$$_printf_percent$$00000017  0x0000032a   Section        4  _printf_percent_end.o(.ARM.Collect$$_printf_percent$$00000017)
    .ARM.Collect$$libinit$$00000000          0x0000032e   Section        2  libinit.o(.ARM.Collect$$libinit$$00000000)
    .ARM.Collect$$libinit$$00000002          0x00000330   Section        0  libinit2.o(.ARM.Collect$$libinit$$00000002)
    .ARM.Collect$$libinit$$00000008          0x00000330   Section        0  libinit2.o(.ARM.Collect$$libinit$$00000008)
    .ARM.Collect$$libinit$$0000000A          0x00000330   Section        0  libinit2.o(.ARM.Collect$$libinit$$0000000A)
    .ARM.Collect$$libinit$$0000000C          0x00000330   Section        0  libinit2.o(.ARM.Collect$$libinit$$0000000C)
    .ARM.Collect$$libinit$$0000000F          0x00000330   Section        0  libinit2.o(.ARM.Collect$$libinit$$0000000F)
    .ARM.Collect$$libinit$$00000011          0x00000330   Section        0  libinit2.o(.ARM.Collect$$libinit$$00000011)
    .ARM.Collect$$libinit$$00000013          0x00000330   Section        0  libinit2.o(.ARM.Collect$$libinit$$00000013)
    .ARM.Collect$$libinit$$00000015          0x00000330   Section        0  libinit2.o(.ARM.Collect$$libinit$$00000015)
    .ARM.Collect$$libinit$$00000017          0x00000330   Section        0  libinit2.o(.ARM.Collect$$libinit$$00000017)
    .ARM.Collect$$libinit$$00000019          0x00000330   Section        0  libinit2.o(.ARM.Collect$$libinit$$00000019)
    .ARM.Collect$$libinit$$0000001B          0x00000330   Section        0  libinit2.o(.ARM.Collect$$libinit$$0000001B)
    .ARM.Collect$$libinit$$0000001D          0x00000330   Section        0  libinit2.o(.ARM.Collect$$libinit$$0000001D)
    .ARM.Collect$$libinit$$0000001F          0x00000330   Section        0  libinit2.o(.ARM.Collect$$libinit$$0000001F)
    .ARM.Collect$$libinit$$00000021          0x00000330   Section        0  libinit2.o(.ARM.Collect$$libinit$$00000021)
    .ARM.Collect$$libinit$$00000023          0x00000330   Section        0  libinit2.o(.ARM.Collect$$libinit$$00000023)
    .ARM.Collect$$libinit$$0000002A          0x00000330   Section        0  libinit2.o(.ARM.Collect$$libinit$$0000002A)
    .ARM.Collect$$libinit$$0000002C          0x00000330   Section        0  libinit2.o(.ARM.Collect$$libinit$$0000002C)
    .ARM.Collect$$libinit$$0000002E          0x00000330   Section        0  libinit2.o(.ARM.Collect$$libinit$$0000002E)
    .ARM.Collect$$libinit$$00000030          0x00000330   Section        0  libinit2.o(.ARM.Collect$$libinit$$00000030)
    .ARM.Collect$$libinit$$00000031          0x00000330   Section        2  libinit2.o(.ARM.Collect$$libinit$$00000031)
    .ARM.Collect$$libshutdown$$00000000      0x00000332   Section        2  libshutdown.o(.ARM.Collect$$libshutdown$$00000000)
    .ARM.Collect$$libshutdown$$00000003      0x00000334   Section        0  libshutdown2.o(.ARM.Collect$$libshutdown$$00000003)
    .ARM.Collect$$libshutdown$$00000006      0x00000334   Section        0  libshutdown2.o(.ARM.Collect$$libshutdown$$00000006)
    .ARM.Collect$$libshutdown$$00000009      0x00000334   Section        0  libshutdown2.o(.ARM.Collect$$libshutdown$$00000009)
    .ARM.Collect$$libshutdown$$0000000B      0x00000334   Section        0  libshutdown2.o(.ARM.Collect$$libshutdown$$0000000B)
    .ARM.Collect$$libshutdown$$0000000E      0x00000334   Section        0  libshutdown2.o(.ARM.Collect$$libshutdown$$0000000E)
    .ARM.Collect$$libshutdown$$0000000F      0x00000334   Section        2  libshutdown2.o(.ARM.Collect$$libshutdown$$0000000F)
    .ARM.Collect$$rtentry$$00000000          0x00000336   Section        0  rtentry.o(.ARM.Collect$$rtentry$$00000000)
    .ARM.Collect$$rtentry$$00000002          0x00000336   Section        0  rtentry2.o(.ARM.Collect$$rtentry$$00000002)
    .ARM.Collect$$rtentry$$00000004          0x00000336   Section        6  rtentry4.o(.ARM.Collect$$rtentry$$00000004)
    .ARM.Collect$$rtentry$$00000009          0x0000033c   Section        0  rtentry2.o(.ARM.Collect$$rtentry$$00000009)
    .ARM.Collect$$rtentry$$0000000A          0x0000033c   Section        4  rtentry2.o(.ARM.Collect$$rtentry$$0000000A)
    .ARM.Collect$$rtentry$$0000000C          0x00000340   Section        0  rtentry2.o(.ARM.Collect$$rtentry$$0000000C)
    .ARM.Collect$$rtentry$$0000000D          0x00000340   Section        8  rtentry2.o(.ARM.Collect$$rtentry$$0000000D)
    .ARM.Collect$$rtexit$$00000000           0x00000348   Section        2  rtexit.o(.ARM.Collect$$rtexit$$00000000)
    .ARM.Collect$$rtexit$$00000002           0x0000034a   Section        0  rtexit2.o(.ARM.Collect$$rtexit$$00000002)
    .ARM.Collect$$rtexit$$00000003           0x0000034a   Section        4  rtexit2.o(.ARM.Collect$$rtexit$$00000003)
    .ARM.Collect$$rtexit$$00000004           0x0000034e   Section        6  rtexit2.o(.ARM.Collect$$rtexit$$00000004)
    .emb_text                                0x00000354   Section        6  st7735.o(.emb_text)
    .text                                    0x0000035c   Section       48  startup.o(.text)
    .text                                    0x0000038c   Section      304  osasm.o(.text)
    .text                                    0x000004bc   Section      718  cr4_fft_64_stm32.o(.text)
    .text                                    0x0000078c   Section        0  noretval__2printf.o(.text)
    .text                                    0x000007a4   Section        0  _printf_str.o(.text)
    .text                                    0x000007f8   Section        0  _printf_dec.o(.text)
    .text                                    0x00000870   Section        0  __printf_ss.o(.text)
    .text                                    0x00000928   Section        0  strlen.o(.text)
    .text                                    0x00000968   Section      128  strcmpv7m.o(.text)
    .text                                    0x000009e8   Section        0  heapauxi.o(.text)
    .text                                    0x000009ee   Section        0  _printf_intcommon.o(.text)
    .text                                    0x00000aa6   Section        0  _printf_char.o(.text)
    .text                                    0x00000ad4   Section        0  _printf_char_file.o(.text)
    .text                                    0x00000af8   Section        0  _printf_char_common.o(.text)
    _printf_input_char                       0x00000af9   Thumb Code    10  _printf_char_common.o(.text)
    .text                                    0x00000b28   Section       74  sys_stackheap_outer.o(.text)
    .text                                    0x00000b72   Section        0  exit.o(.text)
    .text                                    0x00000b80   Section        8  libspace.o(.text)
    .text                                    0x00000b88   Section        0  sys_exit.o(.text)
    .text                                    0x00000b94   Section        2  use_no_semi.o(.text)
    .text                                    0x00000b96   Section        0  indicate_semi.o(.text)
    i.ADC0Seq3_Handler                       0x00000b98   Section        0  adc.o(i.ADC0Seq3_Handler)
    i.ADC_InitHWTrigger                      0x00000bb8   Section        0  adc.o(i.ADC_InitHWTrigger)
    i.CAN0_Handler                           0x00000cd4   Section        0  can0.o(i.CAN0_Handler)
    i.CANDataRegRead                         0x00000d90   Section        0  can.o(i.CANDataRegRead)
    CANDataRegRead                           0x00000d91   Thumb Code    54  can.o(i.CANDataRegRead)
    i.CANIntClear                            0x00000dc6   Section        0  can.o(i.CANIntClear)
    i.CANIntNumberGet                        0x00000e14   Section        0  can.o(i.CANIntNumberGet)
    CANIntNumberGet                          0x00000e15   Thumb Code    44  can.o(i.CANIntNumberGet)
    i.CANIntStatus                           0x00000e44   Section        0  can.o(i.CANIntStatus)
    i.CANMessageGet                          0x00000e80   Section        0  can.o(i.CANMessageGet)
    i.CANRegRead                             0x00001034   Section        0  can.o(i.CANRegRead)
    CANRegRead                               0x00001035   Thumb Code    76  can.o(i.CANRegRead)
    i.CANRegWrite                            0x00001084   Section        0  can.o(i.CANRegWrite)
    CANRegWrite                              0x00001085   Thumb Code    24  can.o(i.CANRegWrite)
    i.CANStatusGet                           0x0000109c   Section        0  can.o(i.CANStatusGet)
    i.CanFifo_Put                            0x00001118   Section        0  can0.o(i.CanFifo_Put)
    i.ConfigForCapture                       0x00001154   Section        0  ping.o(i.ConfigForCapture)
    i.Consumer                               0x00001248   Section        0  ir.o(i.Consumer)
    i.Delay1ms                               0x00001294   Section        0  st7735.o(i.Delay1ms)
    i.Dummy                                  0x000012aa   Section        0  os.o(i.Dummy)
    i.GPIOPortF_Handler                      0x000012b4   Section        0  buttons.o(i.GPIOPortF_Handler)
    i.IRDisplay                              0x00001308   Section        0  ir.o(i.IRDisplay)
    i.IR_Init_HW                             0x000013e0   Section        0  ir.o(i.IR_Init_HW)
    i.IdleTask                               0x000013f4   Section        0  lab6.o(i.IdleTask)
    i.IntDisable                             0x0000141c   Section        0  interrupt.o(i.IntDisable)
    i.IntEnable                              0x0000149c   Section        0  interrupt.o(i.IntEnable)
    i.Interpreter                            0x0000151c   Section        0  lab6.o(i.Interpreter)
    i.Interpreter_Init                       0x00001528   Section        0  interpreter.o(i.Interpreter_Init)
    i.Interpreter_Parse                      0x00001610   Section        0  interpreter.o(i.Interpreter_Parse)
    i.OS_AddAperiodicThread                  0x00001694   Section        0  os.o(i.OS_AddAperiodicThread)
    i.OS_AddPeriodicThread                   0x000017f8   Section        0  os.o(i.OS_AddPeriodicThread)
    i.OS_AddThread                           0x0000198c   Section        0  os.o(i.OS_AddThread)
    i.OS_Aging                               0x00001b50   Section        0  os.o(i.OS_Aging)
    i.OS_Block                               0x00001bc0   Section        0  os.o(i.OS_Block)
    i.OS_Error                               0x00001cfc   Section        0  os.o(i.OS_Error)
    i.OS_Fifo_Get                            0x00001db0   Section        0  os.o(i.OS_Fifo_Get)
    i.OS_Fifo_Init                           0x00001dfc   Section        0  os.o(i.OS_Fifo_Init)
    i.OS_Fifo_Put                            0x00001e30   Section        0  os.o(i.OS_Fifo_Put)
    i.OS_Init                                0x00001e74   Section        0  os.o(i.OS_Init)
    i.OS_InitSemaphore                       0x00001f28   Section        0  os.o(i.OS_InitSemaphore)
    i.OS_KillAperiodic                       0x00001f44   Section        0  os.o(i.OS_KillAperiodic)
    i.OS_Launch                              0x00001fc4   Section        0  os.o(i.OS_Launch)
    i.OS_MailBox_Init                        0x00002000   Section        0  os.o(i.OS_MailBox_Init)
    i.OS_MoveThread                          0x0000201c   Section        0  os.o(i.OS_MoveThread)
    i.OS_Signal                              0x000020d8   Section        0  os.o(i.OS_Signal)
    i.OS_Sleep                               0x00002118   Section        0  os.o(i.OS_Sleep)
    i.OS_SleepCheck                          0x0000221c   Section        0  os.o(i.OS_SleepCheck)
    i.OS_Suspend                             0x00002278   Section        0  os.o(i.OS_Suspend)
    i.OS_TimeDifference                      0x00002290   Section        0  os.o(i.OS_TimeDifference)
    i.OS_Unblock                             0x00002298   Section        0  os.o(i.OS_Unblock)
    i.OS_Wait                                0x00002390   Section        0  os.o(i.OS_Wait)
    i.OS_Wakeup                              0x000023c0   Section        0  os.o(i.OS_Wakeup)
    i.OS_bSignal                             0x0000245c   Section        0  os.o(i.OS_bSignal)
    i.OS_bWait                               0x0000249c   Section        0  os.o(i.OS_bWait)
    i.PLL_Init                               0x000024c8   Section        0  pll.o(i.PLL_Init)
    i.PWM0A_Duty                             0x00002544   Section        0  pwm.o(i.PWM0A_Duty)
    i.PWM0A_Init                             0x00002550   Section        0  pwm.o(i.PWM0A_Init)
    i.PWM0B_Duty                             0x00002614   Section        0  pwm.o(i.PWM0B_Duty)
    i.PWM0B_Init                             0x00002620   Section        0  pwm.o(i.PWM0B_Init)
    i.Ping1                                  0x000026e4   Section        0  ping.o(i.Ping1)
    i.Ping3                                  0x00002704   Section        0  ping.o(i.Ping3)
    i.PingDisplay                            0x00002724   Section        0  ping.o(i.PingDisplay)
    i.PortF_Init                             0x000027e0   Section        0  profiler.o(i.PortF_Init)
    i.Producer                               0x00002850   Section        0  ir.o(i.Producer)
    i.RxFifo_Get                             0x0000286c   Section        0  uart.o(i.RxFifo_Get)
    i.RxFifo_Init                            0x000028a8   Section        0  uart.o(i.RxFifo_Init)
    i.RxFifo_Put                             0x000028cc   Section        0  uart.o(i.RxFifo_Put)
    i.RxFifo_Size                            0x00002908   Section        0  uart.o(i.RxFifo_Size)
    i.ST7735_Color565                        0x00002920   Section        0  st7735.o(i.ST7735_Color565)
    i.ST7735_DrawCharS                       0x00002938   Section        0  st7735.o(i.ST7735_DrawCharS)
    i.ST7735_DrawFastVLine                   0x00002a2c   Section        0  st7735.o(i.ST7735_DrawFastVLine)
    i.ST7735_DrawPixel                       0x00002aa8   Section        0  st7735.o(i.ST7735_DrawPixel)
    i.ST7735_DrawString                      0x00002af0   Section        0  st7735.o(i.ST7735_DrawString)
    i.ST7735_FillRect                        0x00002b48   Section        0  st7735.o(i.ST7735_FillRect)
    i.ST7735_FillScreen                      0x00002bf4   Section        0  st7735.o(i.ST7735_FillScreen)
    i.ST7735_InitR                           0x00002c18   Section        0  st7735.o(i.ST7735_InitR)
    i.ST7735_Message                         0x00002ca0   Section        0  st7735.o(i.ST7735_Message)
    i.ST7735_OutChar                         0x00002cf8   Section        0  st7735.o(i.ST7735_OutChar)
    i.ST7735_OutString                       0x00002dcc   Section        0  st7735.o(i.ST7735_OutString)
    i.ST7735_OutUDec                         0x00002de4   Section        0  st7735.o(i.ST7735_OutUDec)
    i.ST7735_PlotClear                       0x00002e70   Section        0  st7735.o(i.ST7735_PlotClear)
    i.ST7735_PlotLine                        0x00002ecc   Section        0  st7735.o(i.ST7735_PlotLine)
    i.ST7735_PlotNextErase                   0x00002fd4   Section        0  st7735.o(i.ST7735_PlotNextErase)
    i.ST7735_SetCursor                       0x00003014   Section        0  st7735.o(i.ST7735_SetCursor)
    i.ST7735_SetRotation                     0x00003034   Section        0  st7735.o(i.ST7735_SetRotation)
    i.SendPulse                              0x00003108   Section        0  ping.o(i.SendPulse)
    i.SetInitialStack                        0x000031e0   Section        0  os.o(i.SetInitialStack)
    i.SysTick_Wait                           0x000032d0   Section        0  systick.o(i.SysTick_Wait)
    i.TCBInit                                0x000032f0   Section        0  os.o(i.TCBInit)
    i.Timer1A_Handler                        0x00003344   Section        0  ping.o(i.Timer1A_Handler)
    i.Timer3A_Handler                        0x00003390   Section        0  ping.o(i.Timer3A_Handler)
    i.Timer4A_Disable                        0x000033dc   Section        0  timer4.o(i.Timer4A_Disable)
    i.Timer4A_Enable                         0x000033f4   Section        0  timer4.o(i.Timer4A_Enable)
    i.Timer4A_Handler                        0x0000340c   Section        0  timer4.o(i.Timer4A_Handler)
    i.Timer4_Init                            0x000034b0   Section        0  timer4.o(i.Timer4_Init)
    i.Timer5_Init                            0x00003500   Section        0  timer5.o(i.Timer5_Init)
    i.TxFifo_Get                             0x00003540   Section        0  uart.o(i.TxFifo_Get)
    i.TxFifo_Init                            0x0000357c   Section        0  uart.o(i.TxFifo_Init)
    i.TxFifo_Put                             0x000035a0   Section        0  uart.o(i.TxFifo_Put)
    i.TxFifo_Size                            0x000035dc   Section        0  uart.o(i.TxFifo_Size)
    i.UART0_Handler                          0x000035f4   Section        0  uart.o(i.UART0_Handler)
    i.UART_InChar                            0x0000364c   Section        0  uart.o(i.UART_InChar)
    i.UART_InString                          0x0000366c   Section        0  uart.o(i.UART_InString)
    i.UART_InStringNL                        0x000036b2   Section        0  uart.o(i.UART_InStringNL)
    i.UART_InUDec                            0x000036c6   Section        0  uart.o(i.UART_InUDec)
    i.UART_Init                              0x00003714   Section        0  uart.o(i.UART_Init)
    i.UART_OutCRLF                           0x000037f4   Section        0  uart.o(i.UART_OutCRLF)
    i.UART_OutChar                           0x00003804   Section        0  uart.o(i.UART_OutChar)
    i.channelInit                            0x00003840   Section        0  adc.o(i.channelInit)
    i.cmdCAN                                 0x00003bb4   Section        0  interpreter.o(i.cmdCAN)
    i.cmdHelp                                0x00003e0c   Section        0  interpreter.o(i.cmdHelp)
    i.cmdIR                                  0x00003ed8   Section        0  interpreter.o(i.cmdIR)
    i.cmdMotor                               0x00004068   Section        0  interpreter.o(i.cmdMotor)
    i.cmdPing                                0x00004360   Section        0  interpreter.o(i.cmdPing)
    i.commandList                            0x00004524   Section        0  st7735.o(i.commandList)
    commandList                              0x00004525   Thumb Code    86  st7735.o(i.commandList)
    i.commonInit                             0x0000457c   Section        0  st7735.o(i.commonInit)
    commonInit                               0x0000457d   Thumb Code   510  st7735.o(i.commonInit)
    i.copyHardwareToSoftware                 0x000047bc   Section        0  uart.o(i.copyHardwareToSoftware)
    copyHardwareToSoftware                   0x000047bd   Thumb Code    42  uart.o(i.copyHardwareToSoftware)
    i.copySoftwareToHardware                 0x000047f0   Section        0  uart.o(i.copySoftwareToHardware)
    copySoftwareToHardware                   0x000047f1   Thumb Code    44  uart.o(i.copySoftwareToHardware)
    i.ferror                                 0x00004824   Section        0  retarget.o(i.ferror)
    i.fillmessage                            0x0000482c   Section        0  st7735.o(i.fillmessage)
    i.fputc                                  0x00004874   Section        0  retarget.o(i.fputc)
    i.main                                   0x00004884   Section        0  lab6.o(i.main)
    i.pushColor                              0x000048ec   Section        0  st7735.o(i.pushColor)
    pushColor                                0x000048ed   Thumb Code    18  st7735.o(i.pushColor)
    i.setAddrWindow                          0x00004900   Section        0  st7735.o(i.setAddrWindow)
    setAddrWindow                            0x00004901   Thumb Code   106  st7735.o(i.setAddrWindow)
    i.writecommand                           0x00004974   Section        0  st7735.o(i.writecommand)
    writecommand                             0x00004975   Thumb Code    68  st7735.o(i.writecommand)
    i.writedata                              0x000049c0   Section        0  st7735.o(i.writedata)
    writedata                                0x000049c1   Thumb Code    72  st7735.o(i.writedata)
    .constdata                               0x00004a10   Section      147  interpreter.o(.constdata)
    .constdata                               0x00004aa3   Section     2018  st7735.o(.constdata)
    Font                                     0x00004aa3   Data        1275  st7735.o(.constdata)
    Bcmd                                     0x00004f9e   Data         103  st7735.o(.constdata)
    Rcmd1                                    0x00005005   Data          59  st7735.o(.constdata)
    Rcmd2green                               0x00005040   Data          13  st7735.o(.constdata)
    Rcmd2red                                 0x0000504d   Data          13  st7735.o(.constdata)
    Rcmd3                                    0x0000505a   Data          43  st7735.o(.constdata)
    .conststring                             0x00005285   Section      138  interpreter.o(.conststring)
    .data                                    0x20000000   Section       60  os.o(.data)
    .data                                    0x2000003c   Section       16  uart.o(.data)
    .data                                    0x2000004c   Section        8  retarget.o(.data)
    .data                                    0x20000054   Section       10  buttons.o(.data)
    .data                                    0x20000060   Section       60  interpreter.o(.data)
    .data                                    0x2000009c   Section       44  st7735.o(.data)
    _width                                   0x200000a6   Data           2  st7735.o(.data)
    _height                                  0x200000a8   Data           2  st7735.o(.data)
    ColStart                                 0x200000b0   Data           1  st7735.o(.data)
    RowStart                                 0x200000b1   Data           1  st7735.o(.data)
    Rotation                                 0x200000b2   Data           1  st7735.o(.data)
    TabColor                                 0x200000b3   Data           1  st7735.o(.data)
    .data                                    0x200000c8   Section       18  lab6.o(.data)
    .data                                    0x200000dc   Section        4  adc.o(.data)
    .data                                    0x200000e0   Section       28  can0.o(.data)
    RCVData                                  0x200000f0   Data           4  can0.o(.data)
    MailFlag                                 0x200000f4   Data           4  can0.o(.data)
    .data                                    0x200000fc   Section        4  timer4.o(.data)
    .data                                    0x20000100   Section       21  ping.o(.data)
    .data                                    0x20000118   Section       28  ir.o(.data)
    .bss                                     0x20000134   Section    13040  os.o(.bss)
    Fifo                                     0x20002b84   Data        2048  os.o(.bss)
    .bss                                     0x20003424   Section       32  uart.o(.bss)
    RxFifo                                   0x20003424   Data          16  uart.o(.bss)
    TxFifo                                   0x20003434   Data          16  uart.o(.bss)
    .bss                                     0x20003444   Section       11  interpreter.o(.bss)
    .bss                                     0x2000344f   Section       12  st7735.o(.bss)
    .bss                                     0x2000345b   Section       16  can0.o(.bss)
    CanFifo                                  0x2000345b   Data          16  can0.o(.bss)
    .bss                                     0x2000346c   Section     1044  ir.o(.bss)
    .bss                                     0x20003880   Section       96  libspace.o(.bss)
    HEAP                                     0x200038e0   Section        0  startup.o(HEAP)
    STACK                                    0x200038e0   Section     1024  startup.o(STACK)
    HeapMem                                  0x200038e0   Data           0  startup.o(HEAP)
    StackMem                                 0x200038e0   Data           0  startup.o(STACK)

    Global Symbols

    Symbol Name                              Value     Ov Type        Size  Object(Section)

    BuildAttributes$$THM_ISAv4$E$P$D$K$B$S$7EM$PE$A:L22UL41UL21$X:L11$S22US41US21$IEEE1$IW$USESV6$~STKCKD$USESV7$~SHL$OSPACE$ROPI$EBA8$UX$STANDARDLIB$REQ8$PRES8$EABIv2 0x00000000   Number         0  anon$$obj.o ABSOLUTE
    __ARM_use_no_argv                        0x00000000   Number         0  lab6.o ABSOLUTE
    __Vectors                                0x00000000   Data           0  startup.o(RESET)
    _printf_flags                            0x00000000   Number         0  printf_stubs.o ABSOLUTE
    _printf_return_value                     0x00000000   Number         0  printf_stubs.o ABSOLUTE
    _printf_sizespec                         0x00000000   Number         0  printf_stubs.o ABSOLUTE
    _printf_widthprec                        0x00000000   Number         0  printf_stubs.o ABSOLUTE
    __ARM_exceptions_init                     - Undefined Weak Reference
    __alloca_initialize                       - Undefined Weak Reference
    __cpp_initialize__aeabi_                  - Undefined Weak Reference
    __cxa_finalize                            - Undefined Weak Reference
    __rt_locale                               - Undefined Weak Reference
    __sigvec_lookup                           - Undefined Weak Reference
    _atexit_init                              - Undefined Weak Reference
    _call_atexit_fns                          - Undefined Weak Reference
    _clock_init                               - Undefined Weak Reference
    _fp_trap_init                             - Undefined Weak Reference
    _fp_trap_shutdown                         - Undefined Weak Reference
    _get_lc_collate                           - Undefined Weak Reference
    _get_lc_ctype                             - Undefined Weak Reference
    _get_lc_monetary                          - Undefined Weak Reference
    _get_lc_numeric                           - Undefined Weak Reference
    _get_lc_time                              - Undefined Weak Reference
    _getenv_init                              - Undefined Weak Reference
    _handle_redirection                       - Undefined Weak Reference
    _init_alloc                               - Undefined Weak Reference
    _init_user_alloc                          - Undefined Weak Reference
    _initio                                   - Undefined Weak Reference
    _printf_mbtowc                            - Undefined Weak Reference
    _printf_post_padding                      - Undefined Weak Reference
    _printf_pre_padding                       - Undefined Weak Reference
    _printf_truncate_signed                   - Undefined Weak Reference
    _printf_truncate_unsigned                 - Undefined Weak Reference
    _rand_init                                - Undefined Weak Reference
    _signal_finish                            - Undefined Weak Reference
    _signal_init                              - Undefined Weak Reference
    _terminate_alloc                          - Undefined Weak Reference
    _terminate_user_alloc                     - Undefined Weak Reference
    _terminateio                              - Undefined Weak Reference
    Reset_Handler                            0x0000026d   Thumb Code     0  startup.o(RESET)
    NMI_Handler                              0x00000271   Thumb Code     2  startup.o(RESET)
    HardFault_Handler                        0x00000273   Thumb Code     2  startup.o(RESET)
    MemManage_Handler                        0x00000275   Thumb Code     2  startup.o(RESET)
    BusFault_Handler                         0x00000277   Thumb Code     2  startup.o(RESET)
    UsageFault_Handler                       0x00000279   Thumb Code     2  startup.o(RESET)
    SVC_Handler                              0x0000027b   Thumb Code     2  startup.o(RESET)
    DebugMon_Handler                         0x0000027d   Thumb Code     2  startup.o(RESET)
    PendSV_Handler                           0x0000027f   Thumb Code     2  startup.o(RESET)
    ADC0Seq0_Handler                         0x00000283   Thumb Code     0  startup.o(RESET)
    ADC0Seq1_Handler                         0x00000283   Thumb Code     0  startup.o(RESET)
    ADC0Seq2_Handler                         0x00000283   Thumb Code     0  startup.o(RESET)
    ADC1Seq0_Handler                         0x00000283   Thumb Code     0  startup.o(RESET)
    ADC1Seq1_Handler                         0x00000283   Thumb Code     0  startup.o(RESET)
    ADC1Seq2_Handler                         0x00000283   Thumb Code     0  startup.o(RESET)
    ADC1Seq3_Handler                         0x00000283   Thumb Code     0  startup.o(RESET)
    CAN1_Handler                             0x00000283   Thumb Code     0  startup.o(RESET)
    CAN2_Handler                             0x00000283   Thumb Code     0  startup.o(RESET)
    Comp0_Handler                            0x00000283   Thumb Code     0  startup.o(RESET)
    Comp1_Handler                            0x00000283   Thumb Code     0  startup.o(RESET)
    Comp2_Handler                            0x00000283   Thumb Code     0  startup.o(RESET)
    Ethernet_Handler                         0x00000283   Thumb Code     0  startup.o(RESET)
    ExtBus_Handler                           0x00000283   Thumb Code     0  startup.o(RESET)
    FPU_Handler                              0x00000283   Thumb Code     0  startup.o(RESET)
    Fan0_Handler                             0x00000283   Thumb Code     0  startup.o(RESET)
    FlashCtl_Handler                         0x00000283   Thumb Code     0  startup.o(RESET)
    GPIOPortA_Handler                        0x00000283   Thumb Code     0  startup.o(RESET)
    GPIOPortB_Handler                        0x00000283   Thumb Code     0  startup.o(RESET)
    GPIOPortC_Handler                        0x00000283   Thumb Code     0  startup.o(RESET)
    GPIOPortD_Handler                        0x00000283   Thumb Code     0  startup.o(RESET)
    GPIOPortE_Handler                        0x00000283   Thumb Code     0  startup.o(RESET)
    GPIOPortG_Handler                        0x00000283   Thumb Code     0  startup.o(RESET)
    GPIOPortH_Handler                        0x00000283   Thumb Code     0  startup.o(RESET)
    GPIOPortJ_Handler                        0x00000283   Thumb Code     0  startup.o(RESET)
    GPIOPortK_Handler                        0x00000283   Thumb Code     0  startup.o(RESET)
    GPIOPortL_Handler                        0x00000283   Thumb Code     0  startup.o(RESET)
    GPIOPortM_Handler                        0x00000283   Thumb Code     0  startup.o(RESET)
    GPIOPortN_Handler                        0x00000283   Thumb Code     0  startup.o(RESET)
    GPIOPortP1_Handler                       0x00000283   Thumb Code     0  startup.o(RESET)
    GPIOPortP2_Handler                       0x00000283   Thumb Code     0  startup.o(RESET)
    GPIOPortP3_Handler                       0x00000283   Thumb Code     0  startup.o(RESET)
    GPIOPortP4_Handler                       0x00000283   Thumb Code     0  startup.o(RESET)
    GPIOPortP5_Handler                       0x00000283   Thumb Code     0  startup.o(RESET)
    GPIOPortP6_Handler                       0x00000283   Thumb Code     0  startup.o(RESET)
    GPIOPortP7_Handler                       0x00000283   Thumb Code     0  startup.o(RESET)
    GPIOPortP_Handler                        0x00000283   Thumb Code     0  startup.o(RESET)
    GPIOPortQ1_Handler                       0x00000283   Thumb Code     0  startup.o(RESET)
    GPIOPortQ2_Handler                       0x00000283   Thumb Code     0  startup.o(RESET)
    GPIOPortQ3_Handler                       0x00000283   Thumb Code     0  startup.o(RESET)
    GPIOPortQ4_Handler                       0x00000283   Thumb Code     0  startup.o(RESET)
    GPIOPortQ5_Handler                       0x00000283   Thumb Code     0  startup.o(RESET)
    GPIOPortQ6_Handler                       0x00000283   Thumb Code     0  startup.o(RESET)
    GPIOPortQ7_Handler                       0x00000283   Thumb Code     0  startup.o(RESET)
    GPIOPortQ_Handler                        0x00000283   Thumb Code     0  startup.o(RESET)
    GPIOPortR_Handler                        0x00000283   Thumb Code     0  startup.o(RESET)
    GPIOPortS_Handler                        0x00000283   Thumb Code     0  startup.o(RESET)
    Hibernate_Handler                        0x00000283   Thumb Code     0  startup.o(RESET)
    I2C0_Handler                             0x00000283   Thumb Code     0  startup.o(RESET)
    I2C1_Handler                             0x00000283   Thumb Code     0  startup.o(RESET)
    I2C2_Handler                             0x00000283   Thumb Code     0  startup.o(RESET)
    I2C3_Handler                             0x00000283   Thumb Code     0  startup.o(RESET)
    I2C4_Handler                             0x00000283   Thumb Code     0  startup.o(RESET)
    I2C5_Handler                             0x00000283   Thumb Code     0  startup.o(RESET)
    I2S0_Handler                             0x00000283   Thumb Code     0  startup.o(RESET)
    LPC0_Handler                             0x00000283   Thumb Code     0  startup.o(RESET)
    PECI0_Handler                            0x00000283   Thumb Code     0  startup.o(RESET)
    PWM0Fault_Handler                        0x00000283   Thumb Code     0  startup.o(RESET)
    PWM0Generator0_Handler                   0x00000283   Thumb Code     0  startup.o(RESET)
    PWM0Generator1_Handler                   0x00000283   Thumb Code     0  startup.o(RESET)
    PWM0Generator2_Handler                   0x00000283   Thumb Code     0  startup.o(RESET)
    PWM0Generator3_Handler                   0x00000283   Thumb Code     0  startup.o(RESET)
    PWM1Fault_Handler                        0x00000283   Thumb Code     0  startup.o(RESET)
    PWM1Generator0_Handler                   0x00000283   Thumb Code     0  startup.o(RESET)
    PWM1Generator1_Handler                   0x00000283   Thumb Code     0  startup.o(RESET)
    PWM1Generator2_Handler                   0x00000283   Thumb Code     0  startup.o(RESET)
    PWM1Generator3_Handler                   0x00000283   Thumb Code     0  startup.o(RESET)
    Quadrature0_Handler                      0x00000283   Thumb Code     0  startup.o(RESET)
    Quadrature1_Handler                      0x00000283   Thumb Code     0  startup.o(RESET)
    Quadrature2_Handler                      0x00000283   Thumb Code     0  startup.o(RESET)
    SSI0_Handler                             0x00000283   Thumb Code     0  startup.o(RESET)
    SSI1_Handler                             0x00000283   Thumb Code     0  startup.o(RESET)
    SSI2_Handler                             0x00000283   Thumb Code     0  startup.o(RESET)
    SSI3_Handler                             0x00000283   Thumb Code     0  startup.o(RESET)
    SysCtl_Handler                           0x00000283   Thumb Code     0  startup.o(RESET)
    Timer0A_Handler                          0x00000283   Thumb Code     0  startup.o(RESET)
    Timer0B_Handler                          0x00000283   Thumb Code     0  startup.o(RESET)
    Timer1B_Handler                          0x00000283   Thumb Code     0  startup.o(RESET)
    Timer2A_Handler                          0x00000283   Thumb Code     0  startup.o(RESET)
    Timer2B_Handler                          0x00000283   Thumb Code     0  startup.o(RESET)
    Timer3B_Handler                          0x00000283   Thumb Code     0  startup.o(RESET)
    Timer4B_Handler                          0x00000283   Thumb Code     0  startup.o(RESET)
    Timer5A_Handler                          0x00000283   Thumb Code     0  startup.o(RESET)
    Timer5B_Handler                          0x00000283   Thumb Code     0  startup.o(RESET)
    UART1_Handler                            0x00000283   Thumb Code     0  startup.o(RESET)
    UART2_Handler                            0x00000283   Thumb Code     0  startup.o(RESET)
    UART3_Handler                            0x00000283   Thumb Code     0  startup.o(RESET)
    UART4_Handler                            0x00000283   Thumb Code     0  startup.o(RESET)
    UART5_Handler                            0x00000283   Thumb Code     0  startup.o(RESET)
    UART6_Handler                            0x00000283   Thumb Code     0  startup.o(RESET)
    UART7_Handler                            0x00000283   Thumb Code     0  startup.o(RESET)
    USB0_Handler                             0x00000283   Thumb Code     0  startup.o(RESET)
    WDT_Handler                              0x00000283   Thumb Code     0  startup.o(RESET)
    WideTimer0A_Handler                      0x00000283   Thumb Code     0  startup.o(RESET)
    WideTimer0B_Handler                      0x00000283   Thumb Code     0  startup.o(RESET)
    WideTimer1A_Handler                      0x00000283   Thumb Code     0  startup.o(RESET)
    WideTimer1B_Handler                      0x00000283   Thumb Code     0  startup.o(RESET)
    WideTimer2A_Handler                      0x00000283   Thumb Code     0  startup.o(RESET)
    WideTimer2B_Handler                      0x00000283   Thumb Code     0  startup.o(RESET)
    WideTimer3A_Handler                      0x00000283   Thumb Code     0  startup.o(RESET)
    WideTimer3B_Handler                      0x00000283   Thumb Code     0  startup.o(RESET)
    WideTimer4A_Handler                      0x00000283   Thumb Code     0  startup.o(RESET)
    WideTimer4B_Handler                      0x00000283   Thumb Code     0  startup.o(RESET)
    WideTimer5A_Handler                      0x00000283   Thumb Code     0  startup.o(RESET)
    WideTimer5B_Handler                      0x00000283   Thumb Code     0  startup.o(RESET)
    uDMA_Error                               0x00000283   Thumb Code     0  startup.o(RESET)
    uDMA_Handler                             0x00000283   Thumb Code     0  startup.o(RESET)
    __main                                   0x00000285   Thumb Code     8  __main.o(!!!main)
    __scatterload                            0x0000028d   Thumb Code     0  __scatter.o(!!!scatter)
    __scatterload_rt2                        0x0000028d   Thumb Code    44  __scatter.o(!!!scatter)
    __scatterload_rt2_thumb_only             0x0000028d   Thumb Code     0  __scatter.o(!!!scatter)
    __scatterload_null                       0x0000029b   Thumb Code     0  __scatter.o(!!!scatter)
    __decompress                             0x000002c1   Thumb Code    58  __dczerorl.o(!!dczerorl)
    __decompress0                            0x000002c1   Thumb Code     0  __dczerorl.o(!!dczerorl)
    __scatterload_zeroinit                   0x000002fd   Thumb Code    28  __scatter_zi.o(!!handler_zi)
    _printf_d                                0x00000319   Thumb Code     0  _printf_d.o(.ARM.Collect$$_printf_percent$$00000009)
    _printf_percent                          0x00000319   Thumb Code     0  _printf_percent.o(.ARM.Collect$$_printf_percent$$00000000)
    _printf_u                                0x0000031f   Thumb Code     0  _printf_u.o(.ARM.Collect$$_printf_percent$$0000000A)
    _printf_s                                0x00000325   Thumb Code     0  _printf_s.o(.ARM.Collect$$_printf_percent$$00000014)
    _printf_percent_end                      0x0000032b   Thumb Code     0  _printf_percent_end.o(.ARM.Collect$$_printf_percent$$00000017)
    __rt_lib_init                            0x0000032f   Thumb Code     0  libinit.o(.ARM.Collect$$libinit$$00000000)
    __rt_lib_init_alloca_1                   0x00000331   Thumb Code     0  libinit2.o(.ARM.Collect$$libinit$$0000002C)
    __rt_lib_init_argv_1                     0x00000331   Thumb Code     0  libinit2.o(.ARM.Collect$$libinit$$0000002A)
    __rt_lib_init_atexit_1                   0x00000331   Thumb Code     0  libinit2.o(.ARM.Collect$$libinit$$00000019)
    __rt_lib_init_clock_1                    0x00000331   Thumb Code     0  libinit2.o(.ARM.Collect$$libinit$$0000001F)
    __rt_lib_init_cpp_1                      0x00000331   Thumb Code     0  libinit2.o(.ARM.Collect$$libinit$$00000030)
    __rt_lib_init_exceptions_1               0x00000331   Thumb Code     0  libinit2.o(.ARM.Collect$$libinit$$0000002E)
    __rt_lib_init_fp_1                       0x00000331   Thumb Code     0  libinit2.o(.ARM.Collect$$libinit$$00000002)
    __rt_lib_init_fp_trap_1                  0x00000331   Thumb Code     0  libinit2.o(.ARM.Collect$$libinit$$0000001D)
    __rt_lib_init_getenv_1                   0x00000331   Thumb Code     0  libinit2.o(.ARM.Collect$$libinit$$00000021)
    __rt_lib_init_heap_1                     0x00000331   Thumb Code     0  libinit2.o(.ARM.Collect$$libinit$$00000008)
    __rt_lib_init_lc_collate_1               0x00000331   Thumb Code     0  libinit2.o(.ARM.Collect$$libinit$$0000000F)
    __rt_lib_init_lc_ctype_1                 0x00000331   Thumb Code     0  libinit2.o(.ARM.Collect$$libinit$$00000011)
    __rt_lib_init_lc_monetary_1              0x00000331   Thumb Code     0  libinit2.o(.ARM.Collect$$libinit$$00000013)
    __rt_lib_init_lc_numeric_1               0x00000331   Thumb Code     0  libinit2.o(.ARM.Collect$$libinit$$00000015)
    __rt_lib_init_lc_time_1                  0x00000331   Thumb Code     0  libinit2.o(.ARM.Collect$$libinit$$00000017)
    __rt_lib_init_rand_1                     0x00000331   Thumb Code     0  libinit2.o(.ARM.Collect$$libinit$$0000000C)
    __rt_lib_init_return                     0x00000331   Thumb Code     0  libinit2.o(.ARM.Collect$$libinit$$00000031)
    __rt_lib_init_signal_1                   0x00000331   Thumb Code     0  libinit2.o(.ARM.Collect$$libinit$$0000001B)
    __rt_lib_init_stdio_1                    0x00000331   Thumb Code     0  libinit2.o(.ARM.Collect$$libinit$$00000023)
    __rt_lib_init_user_alloc_1               0x00000331   Thumb Code     0  libinit2.o(.ARM.Collect$$libinit$$0000000A)
    __rt_lib_shutdown                        0x00000333   Thumb Code     0  libshutdown.o(.ARM.Collect$$libshutdown$$00000000)
    __rt_lib_shutdown_fp_trap_1              0x00000335   Thumb Code     0  libshutdown2.o(.ARM.Collect$$libshutdown$$00000006)
    __rt_lib_shutdown_heap_1                 0x00000335   Thumb Code     0  libshutdown2.o(.ARM.Collect$$libshutdown$$0000000E)
    __rt_lib_shutdown_return                 0x00000335   Thumb Code     0  libshutdown2.o(.ARM.Collect$$libshutdown$$0000000F)
    __rt_lib_shutdown_signal_1               0x00000335   Thumb Code     0  libshutdown2.o(.ARM.Collect$$libshutdown$$00000009)
    __rt_lib_shutdown_stdio_1                0x00000335   Thumb Code     0  libshutdown2.o(.ARM.Collect$$libshutdown$$00000003)
    __rt_lib_shutdown_user_alloc_1           0x00000335   Thumb Code     0  libshutdown2.o(.ARM.Collect$$libshutdown$$0000000B)
    __rt_entry                               0x00000337   Thumb Code     0  rtentry.o(.ARM.Collect$$rtentry$$00000000)
    __rt_entry_presh_1                       0x00000337   Thumb Code     0  rtentry2.o(.ARM.Collect$$rtentry$$00000002)
    __rt_entry_sh                            0x00000337   Thumb Code     0  rtentry4.o(.ARM.Collect$$rtentry$$00000004)
    __rt_entry_li                            0x0000033d   Thumb Code     0  rtentry2.o(.ARM.Collect$$rtentry$$0000000A)
    __rt_entry_postsh_1                      0x0000033d   Thumb Code     0  rtentry2.o(.ARM.Collect$$rtentry$$00000009)
    __rt_entry_main                          0x00000341   Thumb Code     0  rtentry2.o(.ARM.Collect$$rtentry$$0000000D)
    __rt_entry_postli_1                      0x00000341   Thumb Code     0  rtentry2.o(.ARM.Collect$$rtentry$$0000000C)
    __rt_exit                                0x00000349   Thumb Code     0  rtexit.o(.ARM.Collect$$rtexit$$00000000)
    __rt_exit_ls                             0x0000034b   Thumb Code     0  rtexit2.o(.ARM.Collect$$rtexit$$00000003)
    __rt_exit_prels_1                        0x0000034b   Thumb Code     0  rtexit2.o(.ARM.Collect$$rtexit$$00000002)
    __rt_exit_exit                           0x0000034f   Thumb Code     0  rtexit2.o(.ARM.Collect$$rtexit$$00000004)
    Delay                                    0x00000355   Thumb Code     6  st7735.o(.emb_text)
    DisableInterrupts                        0x0000035d   Thumb Code     0  startup.o(.text)
    EnableInterrupts                         0x00000361   Thumb Code     0  startup.o(.text)
    StartCritical                            0x00000365   Thumb Code     0  startup.o(.text)
    EndCritical                              0x0000036d   Thumb Code     0  startup.o(.text)
    WaitForInterrupt                         0x00000373   Thumb Code     0  startup.o(.text)
    __user_initial_stackheap                 0x00000377   Thumb Code     0  startup.o(.text)
    SysTick_Handler                          0x0000038d   Thumb Code     0  osasm.o(.text)
    StartOS_ASM                              0x00000467   Thumb Code     0  osasm.o(.text)
    OS_Wait_ASM                              0x00000487   Thumb Code     0  osasm.o(.text)
    OS_Signal_ASM                            0x00000499   Thumb Code     0  osasm.o(.text)
    cr4_fft_64_stm32                         0x000004bd   Thumb Code     0  cr4_fft_64_stm32.o(.text)
    __2printf                                0x0000078d   Thumb Code    20  noretval__2printf.o(.text)
    _printf_str                              0x000007a5   Thumb Code    82  _printf_str.o(.text)
    _printf_int_dec                          0x000007f9   Thumb Code   102  _printf_dec.o(.text)
    __printf                                 0x00000871   Thumb Code   184  __printf_ss.o(.text)
    strlen                                   0x00000929   Thumb Code    62  strlen.o(.text)
    strcmp                                   0x00000969   Thumb Code   128  strcmpv7m.o(.text)
    __use_two_region_memory                  0x000009e9   Thumb Code     2  heapauxi.o(.text)
    __rt_heap_escrow$2region                 0x000009eb   Thumb Code     2  heapauxi.o(.text)
    __rt_heap_expand$2region                 0x000009ed   Thumb Code     2  heapauxi.o(.text)
    _printf_int_common                       0x000009ef   Thumb Code   184  _printf_intcommon.o(.text)
    _printf_cs_common                        0x00000aa7   Thumb Code    20  _printf_char.o(.text)
    _printf_char                             0x00000abb   Thumb Code    16  _printf_char.o(.text)
    _printf_string                           0x00000acb   Thumb Code     8  _printf_char.o(.text)
    _printf_char_file                        0x00000ad5   Thumb Code    32  _printf_char_file.o(.text)
    _printf_char_common                      0x00000b03   Thumb Code    32  _printf_char_common.o(.text)
    __user_setup_stackheap                   0x00000b29   Thumb Code    74  sys_stackheap_outer.o(.text)
    exit                                     0x00000b73   Thumb Code    12  exit.o(.text)
    __user_libspace                          0x00000b81   Thumb Code     8  libspace.o(.text)
    __user_perproc_libspace                  0x00000b81   Thumb Code     0  libspace.o(.text)
    __user_perthread_libspace                0x00000b81   Thumb Code     0  libspace.o(.text)
    _sys_exit                                0x00000b89   Thumb Code     8  sys_exit.o(.text)
    __I$use$semihosting                      0x00000b95   Thumb Code     0  use_no_semi.o(.text)
    __use_no_semihosting_swi                 0x00000b95   Thumb Code     2  use_no_semi.o(.text)
    __semihosting_library_function           0x00000b97   Thumb Code     0  indicate_semi.o(.text)
    ADC0Seq3_Handler                         0x00000b99   Thumb Code    20  adc.o(i.ADC0Seq3_Handler)
    ADC_InitHWTrigger                        0x00000bb9   Thumb Code   242  adc.o(i.ADC_InitHWTrigger)
    CAN0_Handler                             0x00000cd5   Thumb Code   172  can0.o(i.CAN0_Handler)
    CANIntClear                              0x00000dc7   Thumb Code    76  can.o(i.CANIntClear)
    CANIntStatus                             0x00000e45   Thumb Code    60  can.o(i.CANIntStatus)
    CANMessageGet                            0x00000e81   Thumb Code   434  can.o(i.CANMessageGet)
    CANStatusGet                             0x0000109d   Thumb Code   124  can.o(i.CANStatusGet)
    CanFifo_Put                              0x00001119   Thumb Code    48  can0.o(i.CanFifo_Put)
    ConfigForCapture                         0x00001155   Thumb Code   220  ping.o(i.ConfigForCapture)
    Consumer                                 0x00001249   Thumb Code    60  ir.o(i.Consumer)
    Delay1ms                                 0x00001295   Thumb Code    22  st7735.o(i.Delay1ms)
    Dummy                                    0x000012ab   Thumb Code     8  os.o(i.Dummy)
    GPIOPortF_Handler                        0x000012b5   Thumb Code    64  buttons.o(i.GPIOPortF_Handler)
    IRDisplay                                0x00001309   Thumb Code   166  ir.o(i.IRDisplay)
    IR_Init_HW                               0x000013e1   Thumb Code    14  ir.o(i.IR_Init_HW)
    IdleTask                                 0x000013f5   Thumb Code    30  lab6.o(i.IdleTask)
    IntDisable                               0x0000141d   Thumb Code   116  interrupt.o(i.IntDisable)
    IntEnable                                0x0000149d   Thumb Code   116  interrupt.o(i.IntEnable)
    Interpreter                              0x0000151d   Thumb Code    12  lab6.o(i.Interpreter)
    Interpreter_Init                         0x00001529   Thumb Code    28  interpreter.o(i.Interpreter_Init)
    Interpreter_Parse                        0x00001611   Thumb Code    72  interpreter.o(i.Interpreter_Parse)
    OS_AddAperiodicThread                    0x00001695   Thumb Code   344  os.o(i.OS_AddAperiodicThread)
    OS_AddPeriodicThread                     0x000017f9   Thumb Code   388  os.o(i.OS_AddPeriodicThread)
    OS_AddThread                             0x0000198d   Thumb Code   428  os.o(i.OS_AddThread)
    OS_Aging                                 0x00001b51   Thumb Code   106  os.o(i.OS_Aging)
    OS_Block                                 0x00001bc1   Thumb Code   294  os.o(i.OS_Block)
    OS_Error                                 0x00001cfd   Thumb Code    66  os.o(i.OS_Error)
    OS_Fifo_Get                              0x00001db1   Thumb Code    58  os.o(i.OS_Fifo_Get)
    OS_Fifo_Init                             0x00001dfd   Thumb Code    32  os.o(i.OS_Fifo_Init)
    OS_Fifo_Put                              0x00001e31   Thumb Code    52  os.o(i.OS_Fifo_Put)
    OS_Init                                  0x00001e75   Thumb Code   136  os.o(i.OS_Init)
    OS_InitSemaphore                         0x00001f29   Thumb Code    26  os.o(i.OS_InitSemaphore)
    OS_KillAperiodic                         0x00001f45   Thumb Code   116  os.o(i.OS_KillAperiodic)
    OS_Launch                                0x00001fc5   Thumb Code    48  os.o(i.OS_Launch)
    OS_MailBox_Init                          0x00002001   Thumb Code    20  os.o(i.OS_MailBox_Init)
    OS_MoveThread                            0x0000201d   Thumb Code   184  os.o(i.OS_MoveThread)
    OS_Signal                                0x000020d9   Thumb Code    60  os.o(i.OS_Signal)
    OS_Sleep                                 0x00002119   Thumb Code   240  os.o(i.OS_Sleep)
    OS_SleepCheck                            0x0000221d   Thumb Code    82  os.o(i.OS_SleepCheck)
    OS_Suspend                               0x00002279   Thumb Code    18  os.o(i.OS_Suspend)
    OS_TimeDifference                        0x00002291   Thumb Code     6  os.o(i.OS_TimeDifference)
    OS_Unblock                               0x00002299   Thumb Code   232  os.o(i.OS_Unblock)
    OS_Wait                                  0x00002391   Thumb Code    46  os.o(i.OS_Wait)
    OS_Wakeup                                0x000023c1   Thumb Code   148  os.o(i.OS_Wakeup)
    OS_bSignal                               0x0000245d   Thumb Code    60  os.o(i.OS_bSignal)
    OS_bWait                                 0x0000249d   Thumb Code    42  os.o(i.OS_bWait)
    PLL_Init                                 0x000024c9   Thumb Code   118  pll.o(i.PLL_Init)
    PWM0A_Duty                               0x00002545   Thumb Code     8  pwm.o(i.PWM0A_Duty)
    PWM0A_Init                               0x00002551   Thumb Code   170  pwm.o(i.PWM0A_Init)
    PWM0B_Duty                               0x00002615   Thumb Code     8  pwm.o(i.PWM0B_Duty)
    PWM0B_Init                               0x00002621   Thumb Code   172  pwm.o(i.PWM0B_Init)
    Ping1                                    0x000026e5   Thumb Code    32  ping.o(i.Ping1)
    Ping3                                    0x00002705   Thumb Code    32  ping.o(i.Ping3)
    PingDisplay                              0x00002725   Thumb Code   140  ping.o(i.PingDisplay)
    PortF_Init                               0x000027e1   Thumb Code    96  profiler.o(i.PortF_Init)
    Producer                                 0x00002851   Thumb Code    24  ir.o(i.Producer)
    RxFifo_Get                               0x0000286d   Thumb Code    46  uart.o(i.RxFifo_Get)
    RxFifo_Init                              0x000028a9   Thumb Code    26  uart.o(i.RxFifo_Init)
    RxFifo_Put                               0x000028cd   Thumb Code    48  uart.o(i.RxFifo_Put)
    RxFifo_Size                              0x00002909   Thumb Code    14  uart.o(i.RxFifo_Size)
    ST7735_Color565                          0x00002921   Thumb Code    24  st7735.o(i.ST7735_Color565)
    ST7735_DrawCharS                         0x00002939   Thumb Code   232  st7735.o(i.ST7735_DrawCharS)
    ST7735_DrawFastVLine                     0x00002a2d   Thumb Code   116  st7735.o(i.ST7735_DrawFastVLine)
    ST7735_DrawPixel                         0x00002aa9   Thumb Code    64  st7735.o(i.ST7735_DrawPixel)
    ST7735_DrawString                        0x00002af1   Thumb Code    86  st7735.o(i.ST7735_DrawString)
    ST7735_FillRect                          0x00002b49   Thumb Code   164  st7735.o(i.ST7735_FillRect)
    ST7735_FillScreen                        0x00002bf5   Thumb Code    28  st7735.o(i.ST7735_FillScreen)
    ST7735_InitR                             0x00002c19   Thumb Code    98  st7735.o(i.ST7735_InitR)
    ST7735_Message                           0x00002ca1   Thumb Code    84  st7735.o(i.ST7735_Message)
    ST7735_OutChar                           0x00002cf9   Thumb Code   176  st7735.o(i.ST7735_OutChar)
    ST7735_OutString                         0x00002dcd   Thumb Code    24  st7735.o(i.ST7735_OutString)
    ST7735_OutUDec                           0x00002de5   Thumb Code   118  st7735.o(i.ST7735_OutUDec)
    ST7735_PlotClear                         0x00002e71   Thumb Code    74  st7735.o(i.ST7735_PlotClear)
    ST7735_PlotLine                          0x00002ecd   Thumb Code   242  st7735.o(i.ST7735_PlotLine)
    ST7735_PlotNextErase                     0x00002fd5   Thumb Code    58  st7735.o(i.ST7735_PlotNextErase)
    ST7735_SetCursor                         0x00003015   Thumb Code    22  st7735.o(i.ST7735_SetCursor)
    ST7735_SetRotation                       0x00003035   Thumb Code   196  st7735.o(i.ST7735_SetRotation)
    SendPulse                                0x00003109   Thumb Code   196  ping.o(i.SendPulse)
    SetInitialStack                          0x000031e1   Thumb Code   230  os.o(i.SetInitialStack)
    SysTick_Wait                             0x000032d1   Thumb Code    32  systick.o(i.SysTick_Wait)
    TCBInit                                  0x000032f1   Thumb Code    76  os.o(i.TCBInit)
    Timer1A_Handler                          0x00003345   Thumb Code    60  ping.o(i.Timer1A_Handler)
    Timer3A_Handler                          0x00003391   Thumb Code    60  ping.o(i.Timer3A_Handler)
    Timer4A_Disable                          0x000033dd   Thumb Code    16  timer4.o(i.Timer4A_Disable)
    Timer4A_Enable                           0x000033f5   Thumb Code    16  timer4.o(i.Timer4A_Enable)
    Timer4A_Handler                          0x0000340d   Thumb Code   144  timer4.o(i.Timer4A_Handler)
    Timer4_Init                              0x000034b1   Thumb Code    64  timer4.o(i.Timer4_Init)
    Timer5_Init                              0x00003501   Thumb Code    52  timer5.o(i.Timer5_Init)
    TxFifo_Get                               0x00003541   Thumb Code    46  uart.o(i.TxFifo_Get)
    TxFifo_Init                              0x0000357d   Thumb Code    26  uart.o(i.TxFifo_Init)
    TxFifo_Put                               0x000035a1   Thumb Code    48  uart.o(i.TxFifo_Put)
    TxFifo_Size                              0x000035dd   Thumb Code    14  uart.o(i.TxFifo_Size)
    UART0_Handler                            0x000035f5   Thumb Code    82  uart.o(i.UART0_Handler)
    UART_InChar                              0x0000364d   Thumb Code    26  uart.o(i.UART_InChar)
    UART_InString                            0x0000366d   Thumb Code    70  uart.o(i.UART_InString)
    UART_InStringNL                          0x000036b3   Thumb Code    20  uart.o(i.UART_InStringNL)
    UART_InUDec                              0x000036c7   Thumb Code    76  uart.o(i.UART_InUDec)
    UART_Init                                0x00003715   Thumb Code   190  uart.o(i.UART_Init)
    UART_OutCRLF                             0x000037f5   Thumb Code    16  uart.o(i.UART_OutCRLF)
    UART_OutChar                             0x00003805   Thumb Code    52  uart.o(i.UART_OutChar)
    channelInit                              0x00003841   Thumb Code   850  adc.o(i.channelInit)
    cmdCAN                                   0x00003bb5   Thumb Code   174  interpreter.o(i.cmdCAN)
    cmdHelp                                  0x00003e0d   Thumb Code   124  interpreter.o(i.cmdHelp)
    cmdIR                                    0x00003ed9   Thumb Code   148  interpreter.o(i.cmdIR)
    cmdMotor                                 0x00004069   Thumb Code   254  interpreter.o(i.cmdMotor)
    cmdPing                                  0x00004361   Thumb Code   176  interpreter.o(i.cmdPing)
    ferror                                   0x00004825   Thumb Code     8  retarget.o(i.ferror)
    fillmessage                              0x0000482d   Thumb Code    64  st7735.o(i.fillmessage)
    fputc                                    0x00004875   Thumb Code    16  retarget.o(i.fputc)
    main                                     0x00004885   Thumb Code    78  lab6.o(i.main)
    dBfs                                     0x00005085   Data         512  st7735.o(.constdata)
    Region$$Table$$Base                      0x00005310   Number         0  anon$$obj.o(Region$$Table)
    Region$$Table$$Limit                     0x00005330   Number         0  anon$$obj.o(Region$$Table)
    MaxNumPri                                0x20000000   Data           4  os.o(.data)
    Scheduler                                0x20000004   Data           4  os.o(.data)
    Num4Ground                               0x20000008   Data           4  os.o(.data)
    NumBGround                               0x2000000c   Data           4  os.o(.data)
    NumBlocked                               0x20000010   Data           4  os.o(.data)
    NumActive                                0x20000014   Data           4  os.o(.data)
    RunPt                                    0x20000018   Data           4  os.o(.data)
    FirstBackgroundPt                        0x2000001c   Data           4  os.o(.data)
    PeriodicTask                             0x20000020   Data           4  os.o(.data)
    PutPt                                    0x20000024   Data           4  os.o(.data)
    GetPt                                    0x20000028   Data           4  os.o(.data)
    MailBoxData                              0x2000002c   Data           4  os.o(.data)
    MsTime                                   0x20000030   Data           4  os.o(.data)
    Sleeping                                 0x20000034   Data           8  os.o(.data)
    RxPutI                                   0x2000003c   Data           4  uart.o(.data)
    RxGetI                                   0x20000040   Data           4  uart.o(.data)
    TxPutI                                   0x20000044   Data           4  uart.o(.data)
    TxGetI                                   0x20000048   Data           4  uart.o(.data)
    __stdout                                 0x2000004c   Data           4  retarget.o(.data)
    __stdin                                  0x20000050   Data           4  retarget.o(.data)
    SW1Task                                  0x20000054   Data           4  buttons.o(.data)
    SW2Task                                  0x20000058   Data           4  buttons.o(.data)
    SW1Priority                              0x2000005c   Data           1  buttons.o(.data)
    SW2Priority                              0x2000005d   Data           1  buttons.o(.data)
    Commands                                 0x20000060   Data          60  interpreter.o(.data)
    StX                                      0x2000009c   Data           4  st7735.o(.data)
    StY                                      0x200000a0   Data           4  st7735.o(.data)
    StTextColor                              0x200000a4   Data           2  st7735.o(.data)
    lastj                                    0x200000ac   Data           4  st7735.o(.data)
    Messageindex                             0x200000b4   Data           4  st7735.o(.data)
    Ymax                                     0x200000b8   Data           4  st7735.o(.data)
    Ymin                                     0x200000bc   Data           4  st7735.o(.data)
    X                                        0x200000c0   Data           4  st7735.o(.data)
    Yrange                                   0x200000c4   Data           4  st7735.o(.data)
    RcvCount                                 0x200000c8   Data           4  lab6.o(.data)
    sequenceNum                              0x200000cc   Data           1  lab6.o(.data)
    IdleCount                                0x200000d0   Data           4  lab6.o(.data)
    DutyPWM0A                                0x200000d4   Data           2  lab6.o(.data)
    DutyPWM0B                                0x200000d6   Data           2  lab6.o(.data)
    DutyPWM0                                 0x200000d8   Data           2  lab6.o(.data)
    UserTask                                 0x200000dc   Data           4  adc.o(.data)
    CanPutI                                  0x200000e0   Data           4  can0.o(.data)
    CanGetI                                  0x200000e4   Data           4  can0.o(.data)
    XmtData                                  0x200000e8   Data           4  can0.o(.data)
    RcvData                                  0x200000ec   Data           4  can0.o(.data)
    PacketLost                               0x200000f8   Data           4  can0.o(.data)
    BackgroundTask                           0x200000fc   Data           4  timer4.o(.data)
    debounce                                 0x20000100   Data           1  ping.o(.data)
    testNum                                  0x20000101   Data           1  ping.o(.data)
    PingID                                   0x20000102   Data           1  ping.o(.data)
    StartTime1                               0x20000104   Data           4  ping.o(.data)
    StartTime3                               0x20000108   Data           4  ping.o(.data)
    PulseTime1                               0x2000010c   Data           4  ping.o(.data)
    PulseTime3                               0x20000110   Data           4  ping.o(.data)
    PingToDisplay                            0x20000114   Data           1  ping.o(.data)
    DataLost                                 0x20000118   Data           4  ir.o(.data)
    debounceIR                               0x2000011c   Data           1  ir.o(.data)
    testNumIR                                0x2000011d   Data           1  ir.o(.data)
    IRID                                     0x2000011e   Data           1  ir.o(.data)
    IR_IRToDisplay                           0x2000011f   Data           1  ir.o(.data)
    DCcomponent1                             0x20000120   Data           4  ir.o(.data)
    DCcomponent2                             0x20000124   Data           4  ir.o(.data)
    tempDCcomponent                          0x20000128   Data           4  ir.o(.data)
    voltage                                  0x2000012c   Data           4  ir.o(.data)
    distance                                 0x20000130   Data           4  ir.o(.data)
    ForegroundTCBs                           0x20000134   Data         480  os.o(.bss)
    BackgroundTCBs                           0x20000314   Data         112  os.o(.bss)
    Stacks                                   0x20000384   Data       10240  os.o(.bss)
    CAN0ReceiveFree                          0x20003384   Data          12  os.o(.bss)
    LCDFree                                  0x20003390   Data          12  os.o(.bss)
    CurrentSize                              0x2000339c   Data          12  os.o(.bss)
    FifoMutex                                0x200033a8   Data          12  os.o(.bss)
    DataValid                                0x200033b4   Data          12  os.o(.bss)
    BoxFree                                  0x200033c0   Data          12  os.o(.bss)
    RxDataAvailable                          0x200033cc   Data          12  os.o(.bss)
    TxRoomLeft                               0x200033d8   Data          12  os.o(.bss)
    PriorityLists                            0x200033e4   Data          64  os.o(.bss)
    cmd                                      0x20003444   Data          11  interpreter.o(.bss)
    Message                                  0x2000344f   Data          12  st7735.o(.bss)
    x1                                       0x2000346c   Data         256  ir.o(.bss)
    y1                                       0x2000356c   Data         256  ir.o(.bss)
    x2                                       0x2000366c   Data         256  ir.o(.bss)
    y2                                       0x2000376c   Data         256  ir.o(.bss)
    IRBuff                                   0x2000386c   Data          20  ir.o(.bss)
    __libspace_start                         0x20003880   Data          96  libspace.o(.bss)
    __temporary_stack_top$libspace           0x200038e0   Data           0  libspace.o(.bss)



==============================================================================

Memory Map of the image

  Image Entry point : 0x0000026d

  Load Region LR_1 (Base: 0x00000000, Size: 0x00005464, Max: 0xffffffff, ABSOLUTE, COMPRESSED[0x00005370])

    Execution Region ER_RO (Base: 0x00000000, Size: 0x00005330, Max: 0xffffffff, ABSOLUTE)

    Base Addr    Size         Type   Attr      Idx    E Section Name        Object

    0x00000000   0x00000284   Code   RO            3  * RESET               startup.o
    0x00000284   0x00000008   Code   RO         1602  * !!!main             c_w.l(__main.o)
    0x0000028c   0x00000034   Code   RO         1769    !!!scatter          c_w.l(__scatter.o)
    0x000002c0   0x0000003a   Code   RO         1767    !!dczerorl          c_w.l(__dczerorl.o)
    0x000002fa   0x00000002   PAD
    0x000002fc   0x0000001c   Code   RO         1771    !!handler_zi        c_w.l(__scatter_zi.o)
    0x00000318   0x00000000   Code   RO         1595    .ARM.Collect$$_printf_percent$$00000000  c_w.l(_printf_percent.o)
    0x00000318   0x00000006   Code   RO         1593    .ARM.Collect$$_printf_percent$$00000009  c_w.l(_printf_d.o)
    0x0000031e   0x00000006   Code   RO         1594    .ARM.Collect$$_printf_percent$$0000000A  c_w.l(_printf_u.o)
    0x00000324   0x00000006   Code   RO         1592    .ARM.Collect$$_printf_percent$$00000014  c_w.l(_printf_s.o)
    0x0000032a   0x00000004   Code   RO         1611    .ARM.Collect$$_printf_percent$$00000017  c_w.l(_printf_percent_end.o)
    0x0000032e   0x00000002   Code   RO         1640    .ARM.Collect$$libinit$$00000000  c_w.l(libinit.o)
    0x00000330   0x00000000   Code   RO         1647    .ARM.Collect$$libinit$$00000002  c_w.l(libinit2.o)
    0x00000330   0x00000000   Code   RO         1650    .ARM.Collect$$libinit$$00000008  c_w.l(libinit2.o)
    0x00000330   0x00000000   Code   RO         1652    .ARM.Collect$$libinit$$0000000A  c_w.l(libinit2.o)
    0x00000330   0x00000000   Code   RO         1654    .ARM.Collect$$libinit$$0000000C  c_w.l(libinit2.o)
    0x00000330   0x00000000   Code   RO         1657    .ARM.Collect$$libinit$$0000000F  c_w.l(libinit2.o)
    0x00000330   0x00000000   Code   RO         1659    .ARM.Collect$$libinit$$00000011  c_w.l(libinit2.o)
    0x00000330   0x00000000   Code   RO         1661    .ARM.Collect$$libinit$$00000013  c_w.l(libinit2.o)
    0x00000330   0x00000000   Code   RO         1663    .ARM.Collect$$libinit$$00000015  c_w.l(libinit2.o)
    0x00000330   0x00000000   Code   RO         1665    .ARM.Collect$$libinit$$00000017  c_w.l(libinit2.o)
    0x00000330   0x00000000   Code   RO         1667    .ARM.Collect$$libinit$$00000019  c_w.l(libinit2.o)
    0x00000330   0x00000000   Code   RO         1669    .ARM.Collect$$libinit$$0000001B  c_w.l(libinit2.o)
    0x00000330   0x00000000   Code   RO         1671    .ARM.Collect$$libinit$$0000001D  c_w.l(libinit2.o)
    0x00000330   0x00000000   Code   RO         1673    .ARM.Collect$$libinit$$0000001F  c_w.l(libinit2.o)
    0x00000330   0x00000000   Code   RO         1675    .ARM.Collect$$libinit$$00000021  c_w.l(libinit2.o)
    0x00000330   0x00000000   Code   RO         1677    .ARM.Collect$$libinit$$00000023  c_w.l(libinit2.o)
    0x00000330   0x00000000   Code   RO         1681    .ARM.Collect$$libinit$$0000002A  c_w.l(libinit2.o)
    0x00000330   0x00000000   Code   RO         1683    .ARM.Collect$$libinit$$0000002C  c_w.l(libinit2.o)
    0x00000330   0x00000000   Code   RO         1685    .ARM.Collect$$libinit$$0000002E  c_w.l(libinit2.o)
    0x00000330   0x00000000   Code   RO         1687    .ARM.Collect$$libinit$$00000030  c_w.l(libinit2.o)
    0x00000330   0x00000002   Code   RO         1688    .ARM.Collect$$libinit$$00000031  c_w.l(libinit2.o)
    0x00000332   0x00000002   Code   RO         1708    .ARM.Collect$$libshutdown$$00000000  c_w.l(libshutdown.o)
    0x00000334   0x00000000   Code   RO         1722    .ARM.Collect$$libshutdown$$00000003  c_w.l(libshutdown2.o)
    0x00000334   0x00000000   Code   RO         1725    .ARM.Collect$$libshutdown$$00000006  c_w.l(libshutdown2.o)
    0x00000334   0x00000000   Code   RO         1728    .ARM.Collect$$libshutdown$$00000009  c_w.l(libshutdown2.o)
    0x00000334   0x00000000   Code   RO         1730    .ARM.Collect$$libshutdown$$0000000B  c_w.l(libshutdown2.o)
    0x00000334   0x00000000   Code   RO         1733    .ARM.Collect$$libshutdown$$0000000E  c_w.l(libshutdown2.o)
    0x00000334   0x00000002   Code   RO         1734    .ARM.Collect$$libshutdown$$0000000F  c_w.l(libshutdown2.o)
    0x00000336   0x00000000   Code   RO         1604    .ARM.Collect$$rtentry$$00000000  c_w.l(rtentry.o)
    0x00000336   0x00000000   Code   RO         1613    .ARM.Collect$$rtentry$$00000002  c_w.l(rtentry2.o)
    0x00000336   0x00000006   Code   RO         1625    .ARM.Collect$$rtentry$$00000004  c_w.l(rtentry4.o)
    0x0000033c   0x00000000   Code   RO         1615    .ARM.Collect$$rtentry$$00000009  c_w.l(rtentry2.o)
    0x0000033c   0x00000004   Code   RO         1616    .ARM.Collect$$rtentry$$0000000A  c_w.l(rtentry2.o)
    0x00000340   0x00000000   Code   RO         1618    .ARM.Collect$$rtentry$$0000000C  c_w.l(rtentry2.o)
    0x00000340   0x00000008   Code   RO         1619    .ARM.Collect$$rtentry$$0000000D  c_w.l(rtentry2.o)
    0x00000348   0x00000002   Code   RO         1644    .ARM.Collect$$rtexit$$00000000  c_w.l(rtexit.o)
    0x0000034a   0x00000000   Code   RO         1690    .ARM.Collect$$rtexit$$00000002  c_w.l(rtexit2.o)
    0x0000034a   0x00000004   Code   RO         1691    .ARM.Collect$$rtexit$$00000003  c_w.l(rtexit2.o)
    0x0000034e   0x00000006   Code   RO         1692    .ARM.Collect$$rtexit$$00000004  c_w.l(rtexit2.o)
    0x00000354   0x00000006   Code   RO          612    .emb_text           st7735.o
    0x0000035a   0x00000002   PAD
    0x0000035c   0x00000030   Code   RO            4    .text               startup.o
    0x0000038c   0x00000130   Code   RO          286    .text               osasm.o
    0x000004bc   0x000002ce   Code   RO         1557    .text               cr4_fft_64_stm32.o
    0x0000078a   0x00000002   PAD
    0x0000078c   0x00000018   Code   RO         1564    .text               c_w.l(noretval__2printf.o)
    0x000007a4   0x00000052   Code   RO         1568    .text               c_w.l(_printf_str.o)
    0x000007f6   0x00000002   PAD
    0x000007f8   0x00000078   Code   RO         1570    .text               c_w.l(_printf_dec.o)
    0x00000870   0x000000b8   Code   RO         1575    .text               c_w.l(__printf_ss.o)
    0x00000928   0x0000003e   Code   RO         1596    .text               c_w.l(strlen.o)
    0x00000966   0x00000002   PAD
    0x00000968   0x00000080   Code   RO         1598    .text               c_w.l(strcmpv7m.o)
    0x000009e8   0x00000006   Code   RO         1600    .text               c_w.l(heapauxi.o)
    0x000009ee   0x000000b8   Code   RO         1605    .text               c_w.l(_printf_intcommon.o)
    0x00000aa6   0x0000002c   Code   RO         1607    .text               c_w.l(_printf_char.o)
    0x00000ad2   0x00000002   PAD
    0x00000ad4   0x00000024   Code   RO         1609    .text               c_w.l(_printf_char_file.o)
    0x00000af8   0x00000030   Code   RO         1627    .text               c_w.l(_printf_char_common.o)
    0x00000b28   0x0000004a   Code   RO         1629    .text               c_w.l(sys_stackheap_outer.o)
    0x00000b72   0x0000000c   Code   RO         1633    .text               c_w.l(exit.o)
    0x00000b7e   0x00000002   PAD
    0x00000b80   0x00000008   Code   RO         1641    .text               c_w.l(libspace.o)
    0x00000b88   0x0000000c   Code   RO         1700    .text               c_w.l(sys_exit.o)
    0x00000b94   0x00000002   Code   RO         1711    .text               c_w.l(use_no_semi.o)
    0x00000b96   0x00000000   Code   RO         1713    .text               c_w.l(indicate_semi.o)
    0x00000b96   0x00000002   PAD
    0x00000b98   0x00000020   Code   RO          946    i.ADC0Seq3_Handler  adc.o
    0x00000bb8   0x0000011c   Code   RO          948    i.ADC_InitHWTrigger  adc.o
    0x00000cd4   0x000000bc   Code   RO         1213    i.CAN0_Handler      can0.o
    0x00000d90   0x00000036   Code   RO         1052    i.CANDataRegRead    can.o
    0x00000dc6   0x0000004c   Code   RO         1058    i.CANIntClear       can.o
    0x00000e12   0x00000002   PAD
    0x00000e14   0x00000030   Code   RO         1061    i.CANIntNumberGet   can.o
    0x00000e44   0x0000003c   Code   RO         1063    i.CANIntStatus      can.o
    0x00000e80   0x000001b2   Code   RO         1066    i.CANMessageGet     can.o
    0x00001032   0x00000002   PAD
    0x00001034   0x00000050   Code   RO         1068    i.CANRegRead        can.o
    0x00001084   0x00000018   Code   RO         1069    i.CANRegWrite       can.o
    0x0000109c   0x0000007c   Code   RO         1072    i.CANStatusGet      can.o
    0x00001118   0x0000003c   Code   RO         1219    i.CanFifo_Put       can0.o
    0x00001154   0x000000f4   Code   RO         1435    i.ConfigForCapture  ping.o
    0x00001248   0x0000004c   Code   RO         1502    i.Consumer          ir.o
    0x00001294   0x00000016   Code   RO          613    i.Delay1ms          st7735.o
    0x000012aa   0x00000008   Code   RO           34    i.Dummy             os.o
    0x000012b2   0x00000002   PAD
    0x000012b4   0x00000054   Code   RO          479    i.GPIOPortF_Handler  buttons.o
    0x00001308   0x000000d8   Code   RO         1505    i.IRDisplay         ir.o
    0x000013e0   0x00000014   Code   RO         1506    i.IR_Init_HW        ir.o
    0x000013f4   0x00000028   Code   RO          882    i.IdleTask          lab6.o
    0x0000141c   0x00000080   Code   RO         1299    i.IntDisable        interrupt.o
    0x0000149c   0x00000080   Code   RO         1300    i.IntEnable         interrupt.o
    0x0000151c   0x0000000c   Code   RO          883    i.Interpreter       lab6.o
    0x00001528   0x000000e8   Code   RO          533    i.Interpreter_Init  interpreter.o
    0x00001610   0x00000084   Code   RO          534    i.Interpreter_Parse  interpreter.o
    0x00001694   0x00000164   Code   RO           35    i.OS_AddAperiodicThread  os.o
    0x000017f8   0x00000194   Code   RO           37    i.OS_AddPeriodicThread  os.o
    0x0000198c   0x000001c4   Code   RO           38    i.OS_AddThread      os.o
    0x00001b50   0x00000070   Code   RO           39    i.OS_Aging          os.o
    0x00001bc0   0x0000013c   Code   RO           40    i.OS_Block          os.o
    0x00001cfc   0x000000b4   Code   RO           42    i.OS_Error          os.o
    0x00001db0   0x0000004c   Code   RO           43    i.OS_Fifo_Get       os.o
    0x00001dfc   0x00000034   Code   RO           44    i.OS_Fifo_Init      os.o
    0x00001e30   0x00000044   Code   RO           45    i.OS_Fifo_Put       os.o
    0x00001e74   0x000000b4   Code   RO           47    i.OS_Init           os.o
    0x00001f28   0x0000001a   Code   RO           48    i.OS_InitSemaphore  os.o
    0x00001f42   0x00000002   PAD
    0x00001f44   0x00000080   Code   RO           50    i.OS_KillAperiodic  os.o
    0x00001fc4   0x0000003c   Code   RO           51    i.OS_Launch         os.o
    0x00002000   0x0000001c   Code   RO           52    i.OS_MailBox_Init   os.o
    0x0000201c   0x000000bc   Code   RO           55    i.OS_MoveThread     os.o
    0x000020d8   0x00000040   Code   RO           57    i.OS_Signal         os.o
    0x00002118   0x00000104   Code   RO           58    i.OS_Sleep          os.o
    0x0000221c   0x0000005c   Code   RO           59    i.OS_SleepCheck     os.o
    0x00002278   0x00000018   Code   RO           60    i.OS_Suspend        os.o
    0x00002290   0x00000006   Code   RO           62    i.OS_TimeDifference  os.o
    0x00002296   0x00000002   PAD
    0x00002298   0x000000f8   Code   RO           63    i.OS_Unblock        os.o
    0x00002390   0x0000002e   Code   RO           64    i.OS_Wait           os.o
    0x000023be   0x00000002   PAD
    0x000023c0   0x0000009c   Code   RO           65    i.OS_Wakeup         os.o
    0x0000245c   0x00000040   Code   RO           66    i.OS_bSignal        os.o
    0x0000249c   0x0000002a   Code   RO           67    i.OS_bWait          os.o
    0x000024c6   0x00000002   PAD
    0x000024c8   0x0000007c   Code   RO           12    i.PLL_Init          pll.o
    0x00002544   0x0000000c   Code   RO          997    i.PWM0A_Duty        pwm.o
    0x00002550   0x000000c4   Code   RO          998    i.PWM0A_Init        pwm.o
    0x00002614   0x0000000c   Code   RO          999    i.PWM0B_Duty        pwm.o
    0x00002620   0x000000c4   Code   RO         1000    i.PWM0B_Init        pwm.o
    0x000026e4   0x00000020   Code   RO         1436    i.Ping1             ping.o
    0x00002704   0x00000020   Code   RO         1437    i.Ping3             ping.o
    0x00002724   0x000000bc   Code   RO         1439    i.PingDisplay       ping.o
    0x000027e0   0x00000070   Code   RO          518    i.PortF_Init        profiler.o
    0x00002850   0x0000001c   Code   RO         1508    i.Producer          ir.o
    0x0000286c   0x0000003c   Code   RO          289    i.RxFifo_Get        uart.o
    0x000028a8   0x00000024   Code   RO          290    i.RxFifo_Init       uart.o
    0x000028cc   0x0000003c   Code   RO          291    i.RxFifo_Put        uart.o
    0x00002908   0x00000018   Code   RO          292    i.RxFifo_Size       uart.o
    0x00002920   0x00000018   Code   RO          619    i.ST7735_Color565   st7735.o
    0x00002938   0x000000f4   Code   RO          622    i.ST7735_DrawCharS  st7735.o
    0x00002a2c   0x0000007c   Code   RO          624    i.ST7735_DrawFastVLine  st7735.o
    0x00002aa8   0x00000048   Code   RO          625    i.ST7735_DrawPixel  st7735.o
    0x00002af0   0x00000056   Code   RO          626    i.ST7735_DrawString  st7735.o
    0x00002b46   0x00000002   PAD
    0x00002b48   0x000000ac   Code   RO          627    i.ST7735_FillRect   st7735.o
    0x00002bf4   0x00000024   Code   RO          628    i.ST7735_FillScreen  st7735.o
    0x00002c18   0x00000088   Code   RO          630    i.ST7735_InitR      st7735.o
    0x00002ca0   0x00000058   Code   RO          632    i.ST7735_Message    st7735.o
    0x00002cf8   0x000000d4   Code   RO          633    i.ST7735_OutChar    st7735.o
    0x00002dcc   0x00000018   Code   RO          634    i.ST7735_OutString  st7735.o
    0x00002de4   0x0000008c   Code   RO          635    i.ST7735_OutUDec    st7735.o
    0x00002e70   0x0000005c   Code   RO          637    i.ST7735_PlotClear  st7735.o
    0x00002ecc   0x00000108   Code   RO          638    i.ST7735_PlotLine   st7735.o
    0x00002fd4   0x00000040   Code   RO          640    i.ST7735_PlotNextErase  st7735.o
    0x00003014   0x00000020   Code   RO          644    i.ST7735_SetCursor  st7735.o
    0x00003034   0x000000d4   Code   RO          645    i.ST7735_SetRotation  st7735.o
    0x00003108   0x000000d8   Code   RO         1441    i.SendPulse         ping.o
    0x000031e0   0x000000f0   Code   RO           68    i.SetInitialStack   os.o
    0x000032d0   0x00000020   Code   RO         1028    i.SysTick_Wait      systick.o
    0x000032f0   0x00000054   Code   RO           69    i.TCBInit           os.o
    0x00003344   0x0000004c   Code   RO         1442    i.Timer1A_Handler   ping.o
    0x00003390   0x0000004c   Code   RO         1443    i.Timer3A_Handler   ping.o
    0x000033dc   0x00000018   Code   RO         1390    i.Timer4A_Disable   timer4.o
    0x000033f4   0x00000018   Code   RO         1391    i.Timer4A_Enable    timer4.o
    0x0000340c   0x000000a4   Code   RO         1392    i.Timer4A_Handler   timer4.o
    0x000034b0   0x00000050   Code   RO         1393    i.Timer4_Init       timer4.o
    0x00003500   0x00000040   Code   RO         1423    i.Timer5_Init       timer5.o
    0x00003540   0x0000003c   Code   RO          293    i.TxFifo_Get        uart.o
    0x0000357c   0x00000024   Code   RO          294    i.TxFifo_Init       uart.o
    0x000035a0   0x0000003c   Code   RO          295    i.TxFifo_Put        uart.o
    0x000035dc   0x00000018   Code   RO          296    i.TxFifo_Size       uart.o
    0x000035f4   0x00000058   Code   RO          297    i.UART0_Handler     uart.o
    0x0000364c   0x00000020   Code   RO          298    i.UART_InChar       uart.o
    0x0000366c   0x00000046   Code   RO          299    i.UART_InString     uart.o
    0x000036b2   0x00000014   Code   RO          300    i.UART_InStringNL   uart.o
    0x000036c6   0x0000004c   Code   RO          301    i.UART_InUDec       uart.o
    0x00003712   0x00000002   PAD
    0x00003714   0x000000e0   Code   RO          303    i.UART_Init         uart.o
    0x000037f4   0x00000010   Code   RO          304    i.UART_OutCRLF      uart.o
    0x00003804   0x0000003c   Code   RO          305    i.UART_OutChar      uart.o
    0x00003840   0x00000374   Code   RO          952    i.channelInit       adc.o
    0x00003bb4   0x00000258   Code   RO          535    i.cmdCAN            interpreter.o
    0x00003e0c   0x000000cc   Code   RO          536    i.cmdHelp           interpreter.o
    0x00003ed8   0x00000190   Code   RO          537    i.cmdIR             interpreter.o
    0x00004068   0x000002f8   Code   RO          538    i.cmdMotor          interpreter.o
    0x00004360   0x000001c4   Code   RO          539    i.cmdPing           interpreter.o
    0x00004524   0x00000056   Code   RO          648    i.commandList       st7735.o
    0x0000457a   0x00000002   PAD
    0x0000457c   0x00000240   Code   RO          649    i.commonInit        st7735.o
    0x000047bc   0x00000034   Code   RO          311    i.copyHardwareToSoftware  uart.o
    0x000047f0   0x00000034   Code   RO          312    i.copySoftwareToHardware  uart.o
    0x00004824   0x00000008   Code   RO          448    i.ferror            retarget.o
    0x0000482c   0x00000048   Code   RO          650    i.fillmessage       st7735.o
    0x00004874   0x00000010   Code   RO          450    i.fputc             retarget.o
    0x00004884   0x00000068   Code   RO          884    i.main              lab6.o
    0x000048ec   0x00000012   Code   RO          651    i.pushColor         st7735.o
    0x000048fe   0x00000002   PAD
    0x00004900   0x00000074   Code   RO          652    i.setAddrWindow     st7735.o
    0x00004974   0x0000004c   Code   RO          653    i.writecommand      st7735.o
    0x000049c0   0x00000050   Code   RO          654    i.writedata         st7735.o
    0x00004a10   0x00000093   Data   RO          541    .constdata          interpreter.o
    0x00004aa3   0x000007e2   Data   RO          656    .constdata          st7735.o
    0x00005285   0x0000008a   Data   RO          542    .conststring        interpreter.o
    0x0000530f   0x00000001   PAD
    0x00005310   0x00000020   Data   RO         1765    Region$$Table       anon$$obj.o


    Execution Region ER_RW (Base: 0x20000000, Size: 0x00000134, Max: 0xffffffff, ABSOLUTE, COMPRESSED[0x00000040])

    Base Addr    Size         Type   Attr      Idx    E Section Name        Object

    0x20000000   0x0000003c   Data   RW           71    .data               os.o
    0x2000003c   0x00000010   Data   RW          314    .data               uart.o
    0x2000004c   0x00000008   Data   RW          451    .data               retarget.o
    0x20000054   0x0000000a   Data   RW          484    .data               buttons.o
    0x2000005e   0x00000002   PAD
    0x20000060   0x0000003c   Data   RW          543    .data               interpreter.o
    0x2000009c   0x0000002c   Data   RW          657    .data               st7735.o
    0x200000c8   0x00000012   Data   RW          885    .data               lab6.o
    0x200000da   0x00000002   PAD
    0x200000dc   0x00000004   Data   RW          953    .data               adc.o
    0x200000e0   0x0000001c   Data   RW         1222    .data               can0.o
    0x200000fc   0x00000004   Data   RW         1394    .data               timer4.o
    0x20000100   0x00000015   Data   RW         1445    .data               ping.o
    0x20000115   0x00000003   PAD
    0x20000118   0x0000001c   Data   RW         1510    .data               ir.o


    Execution Region ER_ZI (Base: 0x20000134, Size: 0x00003bac, Max: 0xffffffff, ABSOLUTE)

    Base Addr    Size         Type   Attr      Idx    E Section Name        Object

    0x20000134   0x000032f0   Zero   RW           70    .bss                os.o
    0x20003424   0x00000020   Zero   RW          313    .bss                uart.o
    0x20003444   0x0000000b   Zero   RW          540    .bss                interpreter.o
    0x2000344f   0x0000000c   Zero   RW          655    .bss                st7735.o
    0x2000345b   0x00000010   Zero   RW         1221    .bss                can0.o
    0x2000346b   0x00000001   PAD
    0x2000346c   0x00000414   Zero   RW         1509    .bss                ir.o
    0x20003880   0x00000060   Zero   RW         1642    .bss                c_w.l(libspace.o)
    0x200038e0   0x00000000   Zero   RW            2    HEAP                startup.o
    0x200038e0   0x00000400   Zero   RW            1    STACK               startup.o


==============================================================================

Image component sizes


      Code (inc. data)   RO Data    RW Data    ZI Data      Debug   Object Name

      1200        112          0          4          0       2464   adc.o
        84         20          0         10          0       1130   buttons.o
       900          8          0          0          0      10408   can.o
       248         28          0         28         16       2258   can0.o
       718        240          0          0          0        272   cr4_fft_64_stm32.o
      2780       1810        285         60         11       5186   interpreter.o
       256         24          0          0          0       1041   interrupt.o
       340         76          0         28       1044       3057   ir.o
       156         36          0         18          0       1634   lab6.o
      3960        414          0         60      13040      19801   os.o
       304         18          0          0          0        324   osasm.o
       864        124          0         21          0       4374   ping.o
       124          6          0          0          0       4663   pll.o
       112         16          0          0          0        445   profiler.o
       416         58          0          0          0       1844   pwm.o
        24          0          0          8          0       2303   retarget.o
      3074        316       2018         44         12      19380   st7735.o
       692        632          0          0       1024        972   startup.o
        32          0          0          0          0        791   systick.o
       292         52          0          4          0       2424   timer4.o
        64         12          0          0          0        470   timer5.o
      1050        164          0         16         32      11783   uart.o

    ----------------------------------------------------------------------
     17716       4168       2336        308      15180      97024   Object Totals
         0          0         32          0          0          0   (incl. Generated)
        26          2          1          7          1          0   (incl. Padding)

    ----------------------------------------------------------------------

      Code (inc. data)   RO Data    RW Data    ZI Data      Debug   Library Member Name

        58          0          0          0          0          0   __dczerorl.o
         8          0          0          0          0         68   __main.o
       184          0          0          0          0         84   __printf_ss.o
        52          8          0          0          0          0   __scatter.o
        28          0          0          0          0          0   __scatter_zi.o
        44          0          0          0          0        108   _printf_char.o
        48          6          0          0          0         96   _printf_char_common.o
        36          4          0          0          0         80   _printf_char_file.o
         6          0          0          0          0          0   _printf_d.o
       120         18          0          0          0         92   _printf_dec.o
       184          0          0          0          0         88   _printf_intcommon.o
         0          0          0          0          0          0   _printf_percent.o
         4          0          0          0          0          0   _printf_percent_end.o
         6          0          0          0          0          0   _printf_s.o
        82          0          0          0          0         80   _printf_str.o
         6          0          0          0          0          0   _printf_u.o
        12          0          0          0          0         72   exit.o
         6          0          0          0          0        152   heapauxi.o
         0          0          0          0          0          0   indicate_semi.o
         2          0          0          0          0          0   libinit.o
         2          0          0          0          0          0   libinit2.o
         2          0          0          0          0          0   libshutdown.o
         2          0          0          0          0          0   libshutdown2.o
         8          4          0          0         96         68   libspace.o
        24          4          0          0          0         84   noretval__2printf.o
         0          0          0          0          0          0   rtentry.o
        12          0          0          0          0          0   rtentry2.o
         6          0          0          0          0          0   rtentry4.o
         2          0          0          0          0          0   rtexit.o
        10          0          0          0          0          0   rtexit2.o
       128          0          0          0          0         68   strcmpv7m.o
        62          0          0          0          0         76   strlen.o
        12          4          0          0          0         68   sys_exit.o
        74          0          0          0          0         80   sys_stackheap_outer.o
         2          0          0          0          0         68   use_no_semi.o

    ----------------------------------------------------------------------
      1244         48          0          0         96       1432   Library Totals
        12          0          0          0          0          0   (incl. Padding)

    ----------------------------------------------------------------------

      Code (inc. data)   RO Data    RW Data    ZI Data      Debug   Library Name

      1232         48          0          0         96       1432   c_w.l

    ----------------------------------------------------------------------
      1244         48          0          0         96       1432   Library Totals

    ----------------------------------------------------------------------

==============================================================================


      Code (inc. data)   RO Data    RW Data    ZI Data      Debug   

     18960       4216       2336        308      15276      91332   Grand Totals
     18960       4216       2336         64      15276      91332   ELF Image Totals (compressed)
     18960       4216       2336         64          0          0   ROM Totals

==============================================================================

    Total RO  Size (Code + RO Data)                21296 (  20.80kB)
    Total RW  Size (RW Data + ZI Data)             15584 (  15.22kB)
    Total ROM Size (Code + RO Data + RW Data)      21360 (  20.86kB)

==============================================================================

