ARM Linker, 5.03 [Build 76] [MDK-ARM Professional]

==============================================================================

Section Cross References

    startup.o(STACK) refers (Special) to heapauxi.o(.text) for __use_two_region_memory
    startup.o(HEAP) refers (Special) to heapauxi.o(.text) for __use_two_region_memory
    startup.o(RESET) refers (Special) to heapauxi.o(.text) for __use_two_region_memory
    startup.o(RESET) refers to startup.o(STACK) for StackMem
    startup.o(RESET) refers to osasm.o(.text) for SysTick_Handler
    startup.o(RESET) refers to buttons.o(i.GPIOPortC_Handler) for GPIOPortC_Handler
    startup.o(RESET) refers to uart.o(i.UART0_Handler) for UART0_Handler
    startup.o(RESET) refers to buttons.o(i.GPIOPortF_Handler) for GPIOPortF_Handler
    startup.o(RESET) refers to timer4.o(i.Timer4A_Handler) for Timer4A_Handler
    startup.o(RESET) refers to __main.o(!!!main) for __main
    startup.o(.text) refers (Special) to heapauxi.o(.text) for __use_two_region_memory
    startup.o(.text) refers to startup.o(HEAP) for HeapMem
    startup.o(.text) refers to startup.o(STACK) for StackMem
    osasm.o(.text) refers to os.o(.data) for Scheduler
    osasm.o(.text) refers to os.o(.bss) for PriorityLists
    uart.o(i.RxFifo_Get) refers to uart.o(.data) for RxPutI
    uart.o(i.RxFifo_Get) refers to uart.o(.bss) for RxFifo
    uart.o(i.RxFifo_Init) refers to startup.o(.text) for StartCritical
==============================================================================

Removing Unused input sections from the image.

    Removing osasm.o(DATA), (4 bytes).
    Removing uart.o(i.RxFifo_Get), (60 bytes).
    Removing uart.o(i.UART_InChar), (32 bytes).
    Removing uart.o(i.UART_InString), (70 bytes).
    Removing uart.o(i.UART_InStringNL), (20 bytes).
    Removing uart.o(i.UART_InUDec), (76 bytes).
    Removing uart.o(i.UART_InUHex), (108 bytes).
    Removing uart.o(i.UART_OutCRLF), (16 bytes).
    Removing uart.o(i.UART_OutString), (24 bytes).
    Removing uart.o(i.UART_OutStringNL), (16 bytes).
    Removing uart.o(i.UART_OutUDec), (42 bytes).
    Removing uart.o(i.UART_OutUDecNL), (16 bytes).
    Removing uart.o(i.UART_OutUHex), (52 bytes).
    Removing retarget.o(i.fgetc), (10 bytes).
    Removing buttons.o(i.BUMPER0_Init), (260 bytes).
    Removing buttons.o(i.BUMPER1_Init), (260 bytes).
    Removing buttons.o(i.SW1_Init), (252 bytes).
    Removing buttons.o(i.SW2_Init), (280 bytes).
==============================================================================

Image Symbol Table

    Local Symbols

    Symbol Name                              Value     Ov Type        Size  Object(Section)

    RESET                                    0x00000000   Section      644  startup.o(RESET)
    ../clib/angel/boardlib.s                 0x00000000   Number         0  boardshut.o ABSOLUTE
    ../clib/angel/boardlib.s                 0x00000000   Number         0  boardinit1.o ABSOLUTE
    ../clib/angel/boardlib.s                 0x00000000   Number         0  boardinit2.o ABSOLUTE
    ../clib/angel/boardlib.s                 0x00000000   Number         0  boardinit3.o ABSOLUTE
    ../clib/angel/handlers.s                 0x00000000   Number         0  __scatter_copy.o ABSOLUTE
    ../clib/angel/handlers.s                 0x00000000   Number         0  __scatter_zi.o ABSOLUTE
    ../clib/angel/kernel.s                   0x00000000   Number         0  rtentry2.o ABSOLUTE
    ../clib/angel/kernel.s                   0x00000000   Number         0  rtentry4.o ABSOLUTE
    ../clib/angel/kernel.s                   0x00000000   Number         0  rtexit2.o ABSOLUTE
    ../clib/angel/kernel.s                   0x00000000   Number         0  rtexit.o ABSOLUTE
    ../clib/angel/kernel.s                   0x00000000   Number         0  rtentry.o ABSOLUTE
    ../clib/angel/rt.s                       0x00000000   Number         0  rt_raise.o ABSOLUTE
    ../clib/angel/scatter.s                  0x00000000   Number         0  __scatter.o ABSOLUTE
    ../clib/angel/startup.s                  0x00000000   Number         0  __main.o ABSOLUTE
    ../clib/angel/sys.s                      0x00000000   Number         0  sys_stackheap_outer.o ABSOLUTE
    ../clib/angel/sys.s                      0x00000000   Number         0  libspace.o ABSOLUTE
    ../clib/angel/sys.s                      0x00000000   Number         0  indicate_semi.o ABSOLUTE
    ../clib/angel/sys.s                      0x00000000   Number         0  use_no_semi.o ABSOLUTE
    ../clib/angel/sysapp.c                   0x00000000   Number         0  sys_command.o ABSOLUTE
    ../clib/angel/sysapp.c                   0x00000000   Number         0  sys_exit.o ABSOLUTE
    ../clib/angel/sysapp.c                   0x00000000   Number         0  sys_wrch.o ABSOLUTE
    ../clib/armsys.c                         0x00000000   Number         0  argv_veneer.o ABSOLUTE
    ../clib/armsys.c                         0x00000000   Number         0  argv_veneer.o ABSOLUTE
    ../clib/armsys.c                         0x00000000   Number         0  _get_argv_nomalloc.o ABSOLUTE
    ../clib/armsys.c                         0x00000000   Number         0  no_argv.o ABSOLUTE
    ../clib/heapalloc.c                      0x00000000   Number         0  hrguard.o ABSOLUTE
    ../clib/heapaux.c                        0x00000000   Number         0  heapauxi.o ABSOLUTE
    ../clib/libinit.s                        0x00000000   Number         0  libshutdown.o ABSOLUTE
    ../clib/libinit.s                        0x00000000   Number         0  libshutdown2.o ABSOLUTE
    ../clib/libinit.s                        0x00000000   Number         0  libinit2.o ABSOLUTE
    ../clib/libinit.s                        0x00000000   Number         0  libinit.o ABSOLUTE
    ../clib/memcpset.s                       0x00000000   Number         0  strcmpv7m.o ABSOLUTE
    ../clib/printf.c                         0x00000000   Number         0  noretval__2printf.o ABSOLUTE
    ../clib/printf.c                         0x00000000   Number         0  __printf_ss.o ABSOLUTE
    ../clib/printf.c                         0x00000000   Number         0  _printf_intcommon.o ABSOLUTE
    ../clib/printf.c                         0x00000000   Number         0  __printf_nopercent.o ABSOLUTE
    ../clib/printf.c                         0x00000000   Number         0  _printf_char_file.o ABSOLUTE
    ../clib/printf.c                         0x00000000   Number         0  _printf_char.o ABSOLUTE
    ../clib/printf.c                         0x00000000   Number         0  __printf_flags_ss_wp.o ABSOLUTE
    ../clib/printf.c                         0x00000000   Number         0  __printf_ss_wp.o ABSOLUTE
    ../clib/printf.c                         0x00000000   Number         0  __printf_flags_wp.o ABSOLUTE
    ../clib/printf.c                         0x00000000   Number         0  __printf_wp.o ABSOLUTE
    ../clib/printf.c                         0x00000000   Number         0  __printf_flags_ss.o ABSOLUTE
    ../clib/printf.c                         0x00000000   Number         0  __printf_flags.o ABSOLUTE
    ../clib/printf.c                         0x00000000   Number         0  _printf_dec.o ABSOLUTE
    ../clib/printf.c                         0x00000000   Number         0  _printf_str.o ABSOLUTE
    ../clib/printf.c                         0x00000000   Number         0  _printf_char_common.o ABSOLUTE
    ../clib/printf.c                         0x00000000   Number         0  __printf.o ABSOLUTE
    ../clib/printf.c                         0x00000000   Number         0  __2printf.o ABSOLUTE
    ../clib/printf_percent.s                 0x00000000   Number         0  _printf_percent_end.o ABSOLUTE
    ../clib/printf_percent.s                 0x00000000   Number         0  _printf_s.o ABSOLUTE
    ../clib/printf_percent.s                 0x00000000   Number         0  _printf_percent.o ABSOLUTE
    ../clib/printf_percent.s                 0x00000000   Number         0  _printf_d.o ABSOLUTE
    ../clib/signal.c                         0x00000000   Number         0  defsig_stak_inner.o ABSOLUTE
    ../clib/signal.c                         0x00000000   Number         0  defsig_rtred_inner.o ABSOLUTE
    ../clib/signal.c                         0x00000000   Number         0  defsig_fpe_inner.o ABSOLUTE
    ../clib/signal.c                         0x00000000   Number         0  defsig_abrt_inner.o ABSOLUTE
    ../clib/signal.c                         0x00000000   Number         0  defsig_rtmem_formal.o ABSOLUTE
    ../clib/signal.c                         0x00000000   Number         0  defsig_rtmem_outer.o ABSOLUTE
    ../clib/signal.c                         0x00000000   Number         0  defsig_rtmem_inner.o ABSOLUTE
    ../clib/signal.c                         0x00000000   Number         0  defsig_pvfn_inner.o ABSOLUTE
    ../clib/signal.c                         0x00000000   Number         0  defsig_cppl_inner.o ABSOLUTE
    ../clib/signal.c                         0x00000000   Number         0  defsig_segv_inner.o ABSOLUTE
    ../clib/signal.c                         0x00000000   Number         0  defsig_general.o ABSOLUTE
    ../clib/signal.c                         0x00000000   Number         0  __raise.o ABSOLUTE
    ../clib/signal.c                         0x00000000   Number         0  defsig_exit.o ABSOLUTE
    ../clib/signal.c                         0x00000000   Number         0  defsig_other.o ABSOLUTE
    ../clib/signal.s                         0x00000000   Number         0  defsig.o ABSOLUTE
    ../clib/stdlib.c                         0x00000000   Number         0  exit.o ABSOLUTE
    ../clib/string.c                         0x00000000   Number         0  strlen.o ABSOLUTE
    ../fplib/fpinit.s                        0x00000000   Number         0  fpinit.o ABSOLUTE
    Buttons.c                                0x00000000   Number         0  buttons.o ABSOLUTE
    DMASoftware.c                            0x00000000   Number         0  dmasoftware.o ABSOLUTE
    GradProject.c                            0x00000000   Number         0  gradproject.o ABSOLUTE
    Interpreter.c                            0x00000000   Number         0  interpreter.o ABSOLUTE
    OS.c                                     0x00000000   Number         0  os.o ABSOLUTE
    OSasm.s                                  0x00000000   Number         0  osasm.o ABSOLUTE
    PLL.c                                    0x00000000   Number         0  pll.o ABSOLUTE
    Profiler.c                               0x00000000   Number         0  profiler.o ABSOLUTE
    Retarget.c                               0x00000000   Number         0  retarget.o ABSOLUTE
    ST7735.c                                 0x00000000   Number         0  st7735.o ABSOLUTE
    ST7735.c                                 0x00000000   Number         0  st7735.o ABSOLUTE
    Timer4.c                                 0x00000000   Number         0  timer4.o ABSOLUTE
    Timer5.c                                 0x00000000   Number         0  timer5.o ABSOLUTE
    UART.c                                   0x00000000   Number         0  uart.o ABSOLUTE
    dc.s                                     0x00000000   Number         0  dc.o ABSOLUTE
    startup.s                                0x00000000   Number         0  startup.o ABSOLUTE
    !!!main                                  0x00000284   Section        8  __main.o(!!!main)
    !!!scatter                               0x0000028c   Section       52  __scatter.o(!!!scatter)
    !!handler_copy                           0x000002c0   Section       26  __scatter_copy.o(!!handler_copy)
    !!handler_zi                             0x000002dc   Section       28  __scatter_zi.o(!!handler_zi)
    .ARM.Collect$$_printf_percent$$00000000  0x000002f8   Section        0  _printf_percent.o(.ARM.Collect$$_printf_percent$$00000000)
    .ARM.Collect$$_printf_percent$$00000017  0x000002f8   Section        4  _printf_percent_end.o(.ARM.Collect$$_printf_percent$$00000017)
    .ARM.Collect$$libinit$$00000000          0x000002fc   Section        2  libinit.o(.ARM.Collect$$libinit$$00000000)
    .ARM.Collect$$libinit$$00000002          0x000002fe   Section        0  libinit2.o(.ARM.Collect$$libinit$$00000002)
    .ARM.Collect$$libinit$$00000008          0x000002fe   Section        0  libinit2.o(.ARM.Collect$$libinit$$00000008)
    .ARM.Collect$$libinit$$0000000A          0x000002fe   Section        0  libinit2.o(.ARM.Collect$$libinit$$0000000A)
    .ARM.Collect$$libinit$$0000000C          0x000002fe   Section        0  libinit2.o(.ARM.Collect$$libinit$$0000000C)
    .ARM.Collect$$libinit$$0000000F          0x000002fe   Section        0  libinit2.o(.ARM.Collect$$libinit$$0000000F)
    .ARM.Collect$$libinit$$00000011          0x000002fe   Section        0  libinit2.o(.ARM.Collect$$libinit$$00000011)
    .ARM.Collect$$libinit$$00000013          0x000002fe   Section        0  libinit2.o(.ARM.Collect$$libinit$$00000013)
    .ARM.Collect$$libinit$$00000015          0x000002fe   Section        0  libinit2.o(.ARM.Collect$$libinit$$00000015)
    .ARM.Collect$$libinit$$00000017          0x000002fe   Section        0  libinit2.o(.ARM.Collect$$libinit$$00000017)
    .ARM.Collect$$libinit$$00000019          0x000002fe   Section        0  libinit2.o(.ARM.Collect$$libinit$$00000019)
    .ARM.Collect$$libinit$$0000001B          0x000002fe   Section        0  libinit2.o(.ARM.Collect$$libinit$$0000001B)
    .ARM.Collect$$libinit$$0000001D          0x000002fe   Section        0  libinit2.o(.ARM.Collect$$libinit$$0000001D)
    .ARM.Collect$$libinit$$0000001F          0x000002fe   Section        0  libinit2.o(.ARM.Collect$$libinit$$0000001F)
    .ARM.Collect$$libinit$$00000021          0x000002fe   Section        0  libinit2.o(.ARM.Collect$$libinit$$00000021)
    .ARM.Collect$$libinit$$00000023          0x000002fe   Section        0  libinit2.o(.ARM.Collect$$libinit$$00000023)
    .ARM.Collect$$libinit$$0000002A          0x000002fe   Section        0  libinit2.o(.ARM.Collect$$libinit$$0000002A)
    .ARM.Collect$$libinit$$0000002C          0x000002fe   Section        0  libinit2.o(.ARM.Collect$$libinit$$0000002C)
    .ARM.Collect$$libinit$$0000002E          0x000002fe   Section        0  libinit2.o(.ARM.Collect$$libinit$$0000002E)
    .ARM.Collect$$libinit$$00000030          0x000002fe   Section        0  libinit2.o(.ARM.Collect$$libinit$$00000030)
    .ARM.Collect$$libinit$$00000031          0x000002fe   Section        2  libinit2.o(.ARM.Collect$$libinit$$00000031)
    .ARM.Collect$$libshutdown$$00000000      0x00000300   Section        2  libshutdown.o(.ARM.Collect$$libshutdown$$00000000)
    .ARM.Collect$$libshutdown$$00000003      0x00000302   Section        0  libshutdown2.o(.ARM.Collect$$libshutdown$$00000003)
    .ARM.Collect$$libshutdown$$00000006      0x00000302   Section        0  libshutdown2.o(.ARM.Collect$$libshutdown$$00000006)
    .ARM.Collect$$libshutdown$$00000009      0x00000302   Section        0  libshutdown2.o(.ARM.Collect$$libshutdown$$00000009)
    .ARM.Collect$$libshutdown$$0000000B      0x00000302   Section        0  libshutdown2.o(.ARM.Collect$$libshutdown$$0000000B)
    .ARM.Collect$$libshutdown$$0000000E      0x00000302   Section        0  libshutdown2.o(.ARM.Collect$$libshutdown$$0000000E)
    .ARM.Collect$$libshutdown$$0000000F      0x00000302   Section        2  libshutdown2.o(.ARM.Collect$$libshutdown$$0000000F)
    .ARM.Collect$$rtentry$$00000000          0x00000304   Section        0  rtentry.o(.ARM.Collect$$rtentry$$00000000)
    .ARM.Collect$$rtentry$$00000002          0x00000304   Section        0  rtentry2.o(.ARM.Collect$$rtentry$$00000002)
    .ARM.Collect$$rtentry$$00000004          0x00000304   Section        6  rtentry4.o(.ARM.Collect$$rtentry$$00000004)
    .ARM.Collect$$rtentry$$00000009          0x0000030a   Section        0  rtentry2.o(.ARM.Collect$$rtentry$$00000009)
    .ARM.Collect$$rtentry$$0000000A          0x0000030a   Section        4  rtentry2.o(.ARM.Collect$$rtentry$$0000000A)
    .ARM.Collect$$rtentry$$0000000C          0x0000030e   Section        0  rtentry2.o(.ARM.Collect$$rtentry$$0000000C)
    .ARM.Collect$$rtentry$$0000000D          0x0000030e   Section        8  rtentry2.o(.ARM.Collect$$rtentry$$0000000D)
    .ARM.Collect$$rtexit$$00000000           0x00000316   Section        2  rtexit.o(.ARM.Collect$$rtexit$$00000000)
    .ARM.Collect$$rtexit$$00000002           0x00000318   Section        0  rtexit2.o(.ARM.Collect$$rtexit$$00000002)
    .ARM.Collect$$rtexit$$00000003           0x00000318   Section        4  rtexit2.o(.ARM.Collect$$rtexit$$00000003)
    .ARM.Collect$$rtexit$$00000004           0x0000031c   Section        6  rtexit2.o(.ARM.Collect$$rtexit$$00000004)
    .emb_text                                0x00000324   Section        6  st7735.o(.emb_text)
    .text                                    0x0000032c   Section       48  startup.o(.text)
    .text                                    0x0000035c   Section      304  osasm.o(.text)
    .text                                    0x0000048c   Section        0  noretval__2printf.o(.text)
    .text                                    0x000004a4   Section        0  __printf.o(.text)
    .text                                    0x0000050c   Section        0  heapauxi.o(.text)
    .text                                    0x00000514   Section        0  _printf_char_file.o(.text)
    .text                                    0x00000538   Section        0  _printf_char_common.o(.text)
    _printf_input_char                       0x00000539   Thumb Code    10  _printf_char_common.o(.text)
    .text                                    0x00000568   Section       74  sys_stackheap_outer.o(.text)
    .text                                    0x000005b2   Section        0  exit.o(.text)
    .text                                    0x000005c0   Section        8  libspace.o(.text)
    .text                                    0x000005c8   Section        0  sys_exit.o(.text)
    .text                                    0x000005d4   Section        2  use_no_semi.o(.text)
    .text                                    0x000005d6   Section        0  indicate_semi.o(.text)
    i.ActiveThread                           0x000005d8   Section        0  gradproject.o(i.ActiveThread)
    i.Delay1ms                               0x000005f0   Section        0  st7735.o(i.Delay1ms)
    i.Dummy                                  0x00000606   Section        0  os.o(i.Dummy)
    i.GPIOPortC_Handler                      0x00000610   Section        0  buttons.o(i.GPIOPortC_Handler)
    i.GPIOPortF_Handler                      0x00000664   Section        0  buttons.o(i.GPIOPortF_Handler)
    i.OS_AddAperiodicThread                  0x000006b8   Section        0  os.o(i.OS_AddAperiodicThread)
    i.OS_AddPeriodicThread                   0x00000818   Section        0  os.o(i.OS_AddPeriodicThread)
    i.OS_AddThread                           0x000009a8   Section        0  os.o(i.OS_AddThread)
    i.OS_Aging                               0x00000b68   Section        0  os.o(i.OS_Aging)
    i.OS_Block                               0x00000be8   Section        0  os.o(i.OS_Block)
    i.OS_Error                               0x00000d24   Section        0  os.o(i.OS_Error)
    i.OS_Fifo1_Init                          0x00000da4   Section        0  os.o(i.OS_Fifo1_Init)
    i.OS_Fifo2_Init                          0x00000dd8   Section        0  os.o(i.OS_Fifo2_Init)
    i.OS_Fifo3_Init                          0x00000e0c   Section        0  os.o(i.OS_Fifo3_Init)
    i.OS_Fifo4_Init                          0x00000e40   Section        0  os.o(i.OS_Fifo4_Init)
    i.OS_Id                                  0x00000e74   Section        0  os.o(i.OS_Id)
    i.OS_Init                                0x00000e80   Section        0  os.o(i.OS_Init)
    i.OS_InitSemaphore                       0x00000f50   Section        0  os.o(i.OS_InitSemaphore)
    i.OS_Kill                                0x00000f6c   Section        0  os.o(i.OS_Kill)
    i.OS_KillAperiodic                       0x00001034   Section        0  os.o(i.OS_KillAperiodic)
    i.OS_Launch                              0x000010b4   Section        0  os.o(i.OS_Launch)
    i.OS_MailBox_Init                        0x000010f0   Section        0  os.o(i.OS_MailBox_Init)
    i.OS_MoveThread                          0x0000110c   Section        0  os.o(i.OS_MoveThread)
    i.OS_Signal                              0x000011c8   Section        0  os.o(i.OS_Signal)
    i.OS_Sleep                               0x00001208   Section        0  os.o(i.OS_Sleep)
    i.OS_SleepCheck                          0x00001300   Section        0  os.o(i.OS_SleepCheck)
    i.OS_Suspend                             0x00001370   Section        0  os.o(i.OS_Suspend)
    i.OS_Unblock                             0x00001388   Section        0  os.o(i.OS_Unblock)
    i.OS_Wait                                0x00001480   Section        0  os.o(i.OS_Wait)
    i.OS_Wakeup                              0x000014b0   Section        0  os.o(i.OS_Wakeup)
    i.PLL_Init                               0x0000154c   Section        0  pll.o(i.PLL_Init)
    i.PortF_Init                             0x000015c8   Section        0  profiler.o(i.PortF_Init)
    i.RxFifo_Init                            0x00001638   Section        0  uart.o(i.RxFifo_Init)
    i.RxFifo_Put                             0x0000165c   Section        0  uart.o(i.RxFifo_Put)
    i.RxFifo_Size                            0x00001698   Section        0  uart.o(i.RxFifo_Size)
    i.ST7735_FillRect                        0x000016b0   Section        0  st7735.o(i.ST7735_FillRect)
    i.ST7735_FillScreen                      0x0000175c   Section        0  st7735.o(i.ST7735_FillScreen)
    i.ST7735_InitR                           0x00001780   Section        0  st7735.o(i.ST7735_InitR)
    i.ST7735_SetCursor                       0x00001808   Section        0  st7735.o(i.ST7735_SetCursor)
    i.ST7735_SetRotation                     0x00001828   Section        0  st7735.o(i.ST7735_SetRotation)
    i.SetInitialStack                        0x000018fc   Section        0  os.o(i.SetInitialStack)
    i.SleepTest                              0x000019e8   Section        0  gradproject.o(i.SleepTest)
    i.SleepingThreads                        0x00001a18   Section        0  gradproject.o(i.SleepingThreads)
    i.TCBInit                                0x00001a24   Section        0  os.o(i.TCBInit)
    i.Timer4A_Disable                        0x00001a78   Section        0  timer4.o(i.Timer4A_Disable)
    i.Timer4A_Enable                         0x00001a90   Section        0  timer4.o(i.Timer4A_Enable)
    i.Timer4A_Handler                        0x00001aa8   Section        0  timer4.o(i.Timer4A_Handler)
    i.Timer4_Init                            0x00001b4c   Section        0  timer4.o(i.Timer4_Init)
    i.Timer5_Init                            0x00001b9c   Section        0  timer5.o(i.Timer5_Init)
    i.TxFifo_Get                             0x00001bdc   Section        0  uart.o(i.TxFifo_Get)
    i.TxFifo_Init                            0x00001c18   Section        0  uart.o(i.TxFifo_Init)
    i.TxFifo_Put                             0x00001c3c   Section        0  uart.o(i.TxFifo_Put)
    i.TxFifo_Size                            0x00001c78   Section        0  uart.o(i.TxFifo_Size)
    i.UART0_Handler                          0x00001c90   Section        0  uart.o(i.UART0_Handler)
    i.UART_Init                              0x00001ce8   Section        0  uart.o(i.UART_Init)
    i.UART_OutChar                           0x00001dc8   Section        0  uart.o(i.UART_OutChar)
    i.commandList                            0x00001e04   Section        0  st7735.o(i.commandList)
    commandList                              0x00001e05   Thumb Code    86  st7735.o(i.commandList)
    i.commonInit                             0x00001e5c   Section        0  st7735.o(i.commonInit)
    commonInit                               0x00001e5d   Thumb Code   510  st7735.o(i.commonInit)
    i.copyHardwareToSoftware                 0x0000209c   Section        0  uart.o(i.copyHardwareToSoftware)
    copyHardwareToSoftware                   0x0000209d   Thumb Code    42  uart.o(i.copyHardwareToSoftware)
    i.copySoftwareToHardware                 0x000020d0   Section        0  uart.o(i.copySoftwareToHardware)
    copySoftwareToHardware                   0x000020d1   Thumb Code    44  uart.o(i.copySoftwareToHardware)
    i.ferror                                 0x00002104   Section        0  retarget.o(i.ferror)
    i.fputc                                  0x0000210c   Section        0  retarget.o(i.fputc)
    i.main                                   0x0000211c   Section        0  gradproject.o(i.main)
    i.setAddrWindow                          0x0000214c   Section        0  st7735.o(i.setAddrWindow)
    setAddrWindow                            0x0000214d   Thumb Code   106  st7735.o(i.setAddrWindow)
    i.writecommand                           0x000021c0   Section        0  st7735.o(i.writecommand)
    writecommand                             0x000021c1   Thumb Code    68  st7735.o(i.writecommand)
    i.writedata                              0x0000220c   Section        0  st7735.o(i.writedata)
    writedata                                0x0000220d   Thumb Code    72  st7735.o(i.writedata)
    .constdata                               0x0000225c   Section     2018  st7735.o(.constdata)
    Font                                     0x0000225c   Data        1275  st7735.o(.constdata)
    Bcmd                                     0x00002757   Data         103  st7735.o(.constdata)
    Rcmd1                                    0x000027be   Data          59  st7735.o(.constdata)
    Rcmd2green                               0x000027f9   Data          13  st7735.o(.constdata)
    Rcmd2red                                 0x00002806   Data          13  st7735.o(.constdata)
    Rcmd3                                    0x00002813   Data          43  st7735.o(.constdata)
    .data                                    0x20000000   Section       16  uart.o(.data)
    .data                                    0x20000010   Section        8  retarget.o(.data)
    .data                                    0x20000018   Section       20  buttons.o(.data)
    .data                                    0x2000002c   Section        4  timer4.o(.data)
    .data                                    0x20000030   Section       84  os.o(.data)
    .data                                    0x20000084   Section        4  gradproject.o(.data)
    .data                                    0x20000088   Section       44  st7735.o(.data)
    _width                                   0x20000092   Data           2  st7735.o(.data)
    _height                                  0x20000094   Data           2  st7735.o(.data)
    ColStart                                 0x2000009c   Data           1  st7735.o(.data)
    RowStart                                 0x2000009d   Data           1  st7735.o(.data)
    Rotation                                 0x2000009e   Data           1  st7735.o(.data)
    TabColor                                 0x2000009f   Data           1  st7735.o(.data)
    .bss                                     0x200000b4   Section       32  uart.o(.bss)
    RxFifo                                   0x200000b4   Data          16  uart.o(.bss)
    TxFifo                                   0x200000c4   Data          16  uart.o(.bss)
    .bss                                     0x200000d4   Section    33604  os.o(.bss)
    Fifo1                                    0x20007b0c   Data         512  os.o(.bss)
    Fifo2                                    0x20007d0c   Data         512  os.o(.bss)
    Fifo3                                    0x20007f0c   Data         512  os.o(.bss)
    Fifo4                                    0x2000810c   Data         512  os.o(.bss)
    .bss                                     0x20008418   Section       96  libspace.o(.bss)
    HEAP                                     0x20008478   Section        0  startup.o(HEAP)
    STACK                                    0x20008478   Section     1024  startup.o(STACK)
    HeapMem                                  0x20008478   Data           0  startup.o(HEAP)
    StackMem                                 0x20008478   Data           0  startup.o(STACK)

    Global Symbols

    Symbol Name                              Value     Ov Type        Size  Object(Section)

    BuildAttributes$$THM_ISAv4$E$P$D$K$B$S$7EM$PE$A:L22UL41UL21$X:L11$S22US41US21$IEEE1$IW$USESV6$~STKCKD$USESV7$~SHL$OSPACE$ROPI$EBA8$UX$STANDARDLIB$REQ8$PRES8$EABIv2 0x00000000   Number         0  anon$$obj.o ABSOLUTE
    __ARM_use_no_argv                        0x00000000   Number         0  gradproject.o ABSOLUTE
    __Vectors                                0x00000000   Data           0  startup.o(RESET)
    __ARM_exceptions_init                     - Undefined Weak Reference
    __alloca_initialize                       - Undefined Weak Reference
    __cpp_initialize__aeabi_                  - Undefined Weak Reference
    __cxa_finalize                            - Undefined Weak Reference
    __rt_locale                               - Undefined Weak Reference
    __sigvec_lookup                           - Undefined Weak Reference
    _atexit_init                              - Undefined Weak Reference
    _call_atexit_fns                          - Undefined Weak Reference
    _clock_init                               - Undefined Weak Reference
    _fp_trap_init                             - Undefined Weak Reference
    _fp_trap_shutdown                         - Undefined Weak Reference
    _get_lc_collate                           - Undefined Weak Reference
    _get_lc_ctype                             - Undefined Weak Reference
    _get_lc_monetary                          - Undefined Weak Reference
    _get_lc_numeric                           - Undefined Weak Reference
    _get_lc_time                              - Undefined Weak Reference
    _getenv_init                              - Undefined Weak Reference
    _handle_redirection                       - Undefined Weak Reference
    _init_alloc                               - Undefined Weak Reference
    _init_user_alloc                          - Undefined Weak Reference
    _initio                                   - Undefined Weak Reference
    _printf_mbtowc                            - Undefined Weak Reference
    _printf_post_padding                      - Undefined Weak Reference
    _printf_pre_padding                       - Undefined Weak Reference
    _printf_truncate_signed                   - Undefined Weak Reference
    _printf_truncate_unsigned                 - Undefined Weak Reference
    _rand_init                                - Undefined Weak Reference
    _signal_finish                            - Undefined Weak Reference
    _signal_init                              - Undefined Weak Reference
    _terminate_alloc                          - Undefined Weak Reference
    _terminate_user_alloc                     - Undefined Weak Reference
    _terminateio                              - Undefined Weak Reference
    Reset_Handler                            0x0000026d   Thumb Code     0  startup.o(RESET)
    NMI_Handler                              0x00000271   Thumb Code     2  startup.o(RESET)
    HardFault_Handler                        0x00000273   Thumb Code     2  startup.o(RESET)
    MemManage_Handler                        0x00000275   Thumb Code     2  startup.o(RESET)
    BusFault_Handler                         0x00000277   Thumb Code     2  startup.o(RESET)
    UsageFault_Handler                       0x00000279   Thumb Code     2  startup.o(RESET)
    SVC_Handler                              0x0000027b   Thumb Code     2  startup.o(RESET)
    DebugMon_Handler                         0x0000027d   Thumb Code     2  startup.o(RESET)
    PendSV_Handler                           0x0000027f   Thumb Code     2  startup.o(RESET)
    ADC0Seq0_Handler                         0x00000283   Thumb Code     0  startup.o(RESET)
    ADC0Seq1_Handler                         0x00000283   Thumb Code     0  startup.o(RESET)
    ADC0Seq2_Handler                         0x00000283   Thumb Code     0  startup.o(RESET)
    ADC0Seq3_Handler                         0x00000283   Thumb Code     0  startup.o(RESET)
    ADC1Seq0_Handler                         0x00000283   Thumb Code     0  startup.o(RESET)
    ADC1Seq1_Handler                         0x00000283   Thumb Code     0  startup.o(RESET)
    ADC1Seq2_Handler                         0x00000283   Thumb Code     0  startup.o(RESET)
    ADC1Seq3_Handler                         0x00000283   Thumb Code     0  startup.o(RESET)
    CAN0_Handler                             0x00000283   Thumb Code     0  startup.o(RESET)
    CAN1_Handler                             0x00000283   Thumb Code     0  startup.o(RESET)
    CAN2_Handler                             0x00000283   Thumb Code     0  startup.o(RESET)
    Comp0_Handler                            0x00000283   Thumb Code     0  startup.o(RESET)
    Comp1_Handler                            0x00000283   Thumb Code     0  startup.o(RESET)
    Comp2_Handler                            0x00000283   Thumb Code     0  startup.o(RESET)
    Ethernet_Handler                         0x00000283   Thumb Code     0  startup.o(RESET)
    ExtBus_Handler                           0x00000283   Thumb Code     0  startup.o(RESET)
    FPU_Handler                              0x00000283   Thumb Code     0  startup.o(RESET)
    Fan0_Handler                             0x00000283   Thumb Code     0  startup.o(RESET)
    FlashCtl_Handler                         0x00000283   Thumb Code     0  startup.o(RESET)
    GPIOPortA_Handler                        0x00000283   Thumb Code     0  startup.o(RESET)
    GPIOPortB_Handler                        0x00000283   Thumb Code     0  startup.o(RESET)
    GPIOPortD_Handler                        0x00000283   Thumb Code     0  startup.o(RESET)
    GPIOPortE_Handler                        0x00000283   Thumb Code     0  startup.o(RESET)
    GPIOPortG_Handler                        0x00000283   Thumb Code     0  startup.o(RESET)
    GPIOPortH_Handler                        0x00000283   Thumb Code     0  startup.o(RESET)
    GPIOPortJ_Handler                        0x00000283   Thumb Code     0  startup.o(RESET)
    GPIOPortK_Handler                        0x00000283   Thumb Code     0  startup.o(RESET)
    GPIOPortL_Handler                        0x00000283   Thumb Code     0  startup.o(RESET)
    GPIOPortM_Handler                        0x00000283   Thumb Code     0  startup.o(RESET)
    GPIOPortN_Handler                        0x00000283   Thumb Code     0  startup.o(RESET)
    GPIOPortP1_Handler                       0x00000283   Thumb Code     0  startup.o(RESET)
    GPIOPortP2_Handler                       0x00000283   Thumb Code     0  startup.o(RESET)
    GPIOPortP3_Handler                       0x00000283   Thumb Code     0  startup.o(RESET)
    GPIOPortP4_Handler                       0x00000283   Thumb Code     0  startup.o(RESET)
    GPIOPortP5_Handler                       0x00000283   Thumb Code     0  startup.o(RESET)
    GPIOPortP6_Handler                       0x00000283   Thumb Code     0  startup.o(RESET)
    GPIOPortP7_Handler                       0x00000283   Thumb Code     0  startup.o(RESET)
    GPIOPortP_Handler                        0x00000283   Thumb Code     0  startup.o(RESET)
    GPIOPortQ1_Handler                       0x00000283   Thumb Code     0  startup.o(RESET)
    GPIOPortQ2_Handler                       0x00000283   Thumb Code     0  startup.o(RESET)
    GPIOPortQ3_Handler                       0x00000283   Thumb Code     0  startup.o(RESET)
    GPIOPortQ4_Handler                       0x00000283   Thumb Code     0  startup.o(RESET)
    GPIOPortQ5_Handler                       0x00000283   Thumb Code     0  startup.o(RESET)
    GPIOPortQ6_Handler                       0x00000283   Thumb Code     0  startup.o(RESET)
    GPIOPortQ7_Handler                       0x00000283   Thumb Code     0  startup.o(RESET)
    GPIOPortQ_Handler                        0x00000283   Thumb Code     0  startup.o(RESET)
    GPIOPortR_Handler                        0x00000283   Thumb Code     0  startup.o(RESET)
    GPIOPortS_Handler                        0x00000283   Thumb Code     0  startup.o(RESET)
    Hibernate_Handler                        0x00000283   Thumb Code     0  startup.o(RESET)
    I2C0_Handler                             0x00000283   Thumb Code     0  startup.o(RESET)
    I2C1_Handler                             0x00000283   Thumb Code     0  startup.o(RESET)
    I2C2_Handler                             0x00000283   Thumb Code     0  startup.o(RESET)
    I2C3_Handler                             0x00000283   Thumb Code     0  startup.o(RESET)
    I2C4_Handler                             0x00000283   Thumb Code     0  startup.o(RESET)
    I2C5_Handler                             0x00000283   Thumb Code     0  startup.o(RESET)
    I2S0_Handler                             0x00000283   Thumb Code     0  startup.o(RESET)
    LPC0_Handler                             0x00000283   Thumb Code     0  startup.o(RESET)
    PECI0_Handler                            0x00000283   Thumb Code     0  startup.o(RESET)
    PWM0Fault_Handler                        0x00000283   Thumb Code     0  startup.o(RESET)
    PWM0Generator0_Handler                   0x00000283   Thumb Code     0  startup.o(RESET)
    PWM0Generator1_Handler                   0x00000283   Thumb Code     0  startup.o(RESET)
    PWM0Generator2_Handler                   0x00000283   Thumb Code     0  startup.o(RESET)
    PWM0Generator3_Handler                   0x00000283   Thumb Code     0  startup.o(RESET)
    PWM1Fault_Handler                        0x00000283   Thumb Code     0  startup.o(RESET)
    PWM1Generator0_Handler                   0x00000283   Thumb Code     0  startup.o(RESET)
    PWM1Generator1_Handler                   0x00000283   Thumb Code     0  startup.o(RESET)
    PWM1Generator2_Handler                   0x00000283   Thumb Code     0  startup.o(RESET)
    PWM1Generator3_Handler                   0x00000283   Thumb Code     0  startup.o(RESET)
    Quadrature0_Handler                      0x00000283   Thumb Code     0  startup.o(RESET)
    Quadrature1_Handler                      0x00000283   Thumb Code     0  startup.o(RESET)
    Quadrature2_Handler                      0x00000283   Thumb Code     0  startup.o(RESET)
    SSI0_Handler                             0x00000283   Thumb Code     0  startup.o(RESET)
    SSI1_Handler                             0x00000283   Thumb Code     0  startup.o(RESET)
    SSI2_Handler                             0x00000283   Thumb Code     0  startup.o(RESET)
    SSI3_Handler                             0x00000283   Thumb Code     0  startup.o(RESET)
    SysCtl_Handler                           0x00000283   Thumb Code     0  startup.o(RESET)
    Timer0A_Handler                          0x00000283   Thumb Code     0  startup.o(RESET)
    Timer0B_Handler                          0x00000283   Thumb Code     0  startup.o(RESET)
    Timer1A_Handler                          0x00000283   Thumb Code     0  startup.o(RESET)
    Timer1B_Handler                          0x00000283   Thumb Code     0  startup.o(RESET)
    Timer2A_Handler                          0x00000283   Thumb Code     0  startup.o(RESET)
    Timer2B_Handler                          0x00000283   Thumb Code     0  startup.o(RESET)
    Timer3A_Handler                          0x00000283   Thumb Code     0  startup.o(RESET)
    Timer3B_Handler                          0x00000283   Thumb Code     0  startup.o(RESET)
    Timer4B_Handler                          0x00000283   Thumb Code     0  startup.o(RESET)
    Timer5A_Handler                          0x00000283   Thumb Code     0  startup.o(RESET)
    Timer5B_Handler                          0x00000283   Thumb Code     0  startup.o(RESET)
    UART1_Handler                            0x00000283   Thumb Code     0  startup.o(RESET)
    UART2_Handler                            0x00000283   Thumb Code     0  startup.o(RESET)
    UART3_Handler                            0x00000283   Thumb Code     0  startup.o(RESET)
    UART4_Handler                            0x00000283   Thumb Code     0  startup.o(RESET)
    UART5_Handler                            0x00000283   Thumb Code     0  startup.o(RESET)
    UART6_Handler                            0x00000283   Thumb Code     0  startup.o(RESET)
    UART7_Handler                            0x00000283   Thumb Code     0  startup.o(RESET)
    USB0_Handler                             0x00000283   Thumb Code     0  startup.o(RESET)
    WDT_Handler                              0x00000283   Thumb Code     0  startup.o(RESET)
    WideTimer0A_Handler                      0x00000283   Thumb Code     0  startup.o(RESET)
    WideTimer0B_Handler                      0x00000283   Thumb Code     0  startup.o(RESET)
    WideTimer1A_Handler                      0x00000283   Thumb Code     0  startup.o(RESET)
    WideTimer1B_Handler                      0x00000283   Thumb Code     0  startup.o(RESET)
    WideTimer2A_Handler                      0x00000283   Thumb Code     0  startup.o(RESET)
    WideTimer2B_Handler                      0x00000283   Thumb Code     0  startup.o(RESET)
    WideTimer3A_Handler                      0x00000283   Thumb Code     0  startup.o(RESET)
    WideTimer3B_Handler                      0x00000283   Thumb Code     0  startup.o(RESET)
    WideTimer4A_Handler                      0x00000283   Thumb Code     0  startup.o(RESET)
    WideTimer4B_Handler                      0x00000283   Thumb Code     0  startup.o(RESET)
    WideTimer5A_Handler                      0x00000283   Thumb Code     0  startup.o(RESET)
    WideTimer5B_Handler                      0x00000283   Thumb Code     0  startup.o(RESET)
    uDMA_Error                               0x00000283   Thumb Code     0  startup.o(RESET)
    uDMA_Handler                             0x00000283   Thumb Code     0  startup.o(RESET)
    __main                                   0x00000285   Thumb Code     8  __main.o(!!!main)
    __scatterload                            0x0000028d   Thumb Code     0  __scatter.o(!!!scatter)
    __scatterload_rt2                        0x0000028d   Thumb Code    44  __scatter.o(!!!scatter)
    __scatterload_rt2_thumb_only             0x0000028d   Thumb Code     0  __scatter.o(!!!scatter)
    __scatterload_null                       0x0000029b   Thumb Code     0  __scatter.o(!!!scatter)
    __scatterload_copy                       0x000002c1   Thumb Code    26  __scatter_copy.o(!!handler_copy)
    __scatterload_zeroinit                   0x000002dd   Thumb Code    28  __scatter_zi.o(!!handler_zi)
    _printf_percent                          0x000002f9   Thumb Code     0  _printf_percent.o(.ARM.Collect$$_printf_percent$$00000000)
    _printf_percent_end                      0x000002f9   Thumb Code     0  _printf_percent_end.o(.ARM.Collect$$_printf_percent$$00000017)
    __rt_lib_init                            0x000002fd   Thumb Code     0  libinit.o(.ARM.Collect$$libinit$$00000000)
    __rt_lib_init_alloca_1                   0x000002ff   Thumb Code     0  libinit2.o(.ARM.Collect$$libinit$$0000002C)
    __rt_lib_init_argv_1                     0x000002ff   Thumb Code     0  libinit2.o(.ARM.Collect$$libinit$$0000002A)
    __rt_lib_init_atexit_1                   0x000002ff   Thumb Code     0  libinit2.o(.ARM.Collect$$libinit$$00000019)
    __rt_lib_init_clock_1                    0x000002ff   Thumb Code     0  libinit2.o(.ARM.Collect$$libinit$$0000001F)
    __rt_lib_init_cpp_1                      0x000002ff   Thumb Code     0  libinit2.o(.ARM.Collect$$libinit$$00000030)
    __rt_lib_init_exceptions_1               0x000002ff   Thumb Code     0  libinit2.o(.ARM.Collect$$libinit$$0000002E)
    __rt_lib_init_fp_1                       0x000002ff   Thumb Code     0  libinit2.o(.ARM.Collect$$libinit$$00000002)
    __rt_lib_init_fp_trap_1                  0x000002ff   Thumb Code     0  libinit2.o(.ARM.Collect$$libinit$$0000001D)
    __rt_lib_init_getenv_1                   0x000002ff   Thumb Code     0  libinit2.o(.ARM.Collect$$libinit$$00000021)
    __rt_lib_init_heap_1                     0x000002ff   Thumb Code     0  libinit2.o(.ARM.Collect$$libinit$$00000008)
    __rt_lib_init_lc_collate_1               0x000002ff   Thumb Code     0  libinit2.o(.ARM.Collect$$libinit$$0000000F)
    __rt_lib_init_lc_ctype_1                 0x000002ff   Thumb Code     0  libinit2.o(.ARM.Collect$$libinit$$00000011)
    __rt_lib_init_lc_monetary_1              0x000002ff   Thumb Code     0  libinit2.o(.ARM.Collect$$libinit$$00000013)
    __rt_lib_init_lc_numeric_1               0x000002ff   Thumb Code     0  libinit2.o(.ARM.Collect$$libinit$$00000015)
    __rt_lib_init_lc_time_1                  0x000002ff   Thumb Code     0  libinit2.o(.ARM.Collect$$libinit$$00000017)
    __rt_lib_init_rand_1                     0x000002ff   Thumb Code     0  libinit2.o(.ARM.Collect$$libinit$$0000000C)
    __rt_lib_init_return                     0x000002ff   Thumb Code     0  libinit2.o(.ARM.Collect$$libinit$$00000031)
    __rt_lib_init_signal_1                   0x000002ff   Thumb Code     0  libinit2.o(.ARM.Collect$$libinit$$0000001B)
    __rt_lib_init_stdio_1                    0x000002ff   Thumb Code     0  libinit2.o(.ARM.Collect$$libinit$$00000023)
    __rt_lib_init_user_alloc_1               0x000002ff   Thumb Code     0  libinit2.o(.ARM.Collect$$libinit$$0000000A)
    __rt_lib_shutdown                        0x00000301   Thumb Code     0  libshutdown.o(.ARM.Collect$$libshutdown$$00000000)
    __rt_lib_shutdown_fp_trap_1              0x00000303   Thumb Code     0  libshutdown2.o(.ARM.Collect$$libshutdown$$00000006)
    __rt_lib_shutdown_heap_1                 0x00000303   Thumb Code     0  libshutdown2.o(.ARM.Collect$$libshutdown$$0000000E)
    __rt_lib_shutdown_return                 0x00000303   Thumb Code     0  libshutdown2.o(.ARM.Collect$$libshutdown$$0000000F)
    __rt_lib_shutdown_signal_1               0x00000303   Thumb Code     0  libshutdown2.o(.ARM.Collect$$libshutdown$$00000009)
    __rt_lib_shutdown_stdio_1                0x00000303   Thumb Code     0  libshutdown2.o(.ARM.Collect$$libshutdown$$00000003)
    __rt_lib_shutdown_user_alloc_1           0x00000303   Thumb Code     0  libshutdown2.o(.ARM.Collect$$libshutdown$$0000000B)
    __rt_entry                               0x00000305   Thumb Code     0  rtentry.o(.ARM.Collect$$rtentry$$00000000)
    __rt_entry_presh_1                       0x00000305   Thumb Code     0  rtentry2.o(.ARM.Collect$$rtentry$$00000002)
    __rt_entry_sh                            0x00000305   Thumb Code     0  rtentry4.o(.ARM.Collect$$rtentry$$00000004)
    __rt_entry_li                            0x0000030b   Thumb Code     0  rtentry2.o(.ARM.Collect$$rtentry$$0000000A)
    __rt_entry_postsh_1                      0x0000030b   Thumb Code     0  rtentry2.o(.ARM.Collect$$rtentry$$00000009)
    __rt_entry_main                          0x0000030f   Thumb Code     0  rtentry2.o(.ARM.Collect$$rtentry$$0000000D)
    __rt_entry_postli_1                      0x0000030f   Thumb Code     0  rtentry2.o(.ARM.Collect$$rtentry$$0000000C)
    __rt_exit                                0x00000317   Thumb Code     0  rtexit.o(.ARM.Collect$$rtexit$$00000000)
    __rt_exit_ls                             0x00000319   Thumb Code     0  rtexit2.o(.ARM.Collect$$rtexit$$00000003)
    __rt_exit_prels_1                        0x00000319   Thumb Code     0  rtexit2.o(.ARM.Collect$$rtexit$$00000002)
    __rt_exit_exit                           0x0000031d   Thumb Code     0  rtexit2.o(.ARM.Collect$$rtexit$$00000004)
    Delay                                    0x00000325   Thumb Code     6  st7735.o(.emb_text)
    DisableInterrupts                        0x0000032d   Thumb Code     0  startup.o(.text)
    EnableInterrupts                         0x00000331   Thumb Code     0  startup.o(.text)
    StartCritical                            0x00000335   Thumb Code     0  startup.o(.text)
    EndCritical                              0x0000033d   Thumb Code     0  startup.o(.text)
    WaitForInterrupt                         0x00000343   Thumb Code     0  startup.o(.text)
    __user_initial_stackheap                 0x00000347   Thumb Code     0  startup.o(.text)
    SysTick_Handler                          0x0000035d   Thumb Code     0  osasm.o(.text)
    StartOS_ASM                              0x00000437   Thumb Code     0  osasm.o(.text)
    OS_Wait_ASM                              0x00000457   Thumb Code     0  osasm.o(.text)
    OS_Signal_ASM                            0x00000469   Thumb Code     0  osasm.o(.text)
    __2printf                                0x0000048d   Thumb Code    20  noretval__2printf.o(.text)
    __printf                                 0x000004a5   Thumb Code   104  __printf.o(.text)
    __use_two_region_memory                  0x0000050d   Thumb Code     2  heapauxi.o(.text)
    __rt_heap_escrow$2region                 0x0000050f   Thumb Code     2  heapauxi.o(.text)
    __rt_heap_expand$2region                 0x00000511   Thumb Code     2  heapauxi.o(.text)
    _printf_char_file                        0x00000515   Thumb Code    32  _printf_char_file.o(.text)
    _printf_char_common                      0x00000543   Thumb Code    32  _printf_char_common.o(.text)
    __user_setup_stackheap                   0x00000569   Thumb Code    74  sys_stackheap_outer.o(.text)
    exit                                     0x000005b3   Thumb Code    12  exit.o(.text)
    __user_libspace                          0x000005c1   Thumb Code     8  libspace.o(.text)
    __user_perproc_libspace                  0x000005c1   Thumb Code     0  libspace.o(.text)
    __user_perthread_libspace                0x000005c1   Thumb Code     0  libspace.o(.text)
    _sys_exit                                0x000005c9   Thumb Code     8  sys_exit.o(.text)
    __I$use$semihosting                      0x000005d5   Thumb Code     0  use_no_semi.o(.text)
    __use_no_semihosting_swi                 0x000005d5   Thumb Code     2  use_no_semi.o(.text)
    __semihosting_library_function           0x000005d7   Thumb Code     0  indicate_semi.o(.text)
    ActiveThread                             0x000005d9   Thumb Code    20  gradproject.o(i.ActiveThread)
    Delay1ms                                 0x000005f1   Thumb Code    22  st7735.o(i.Delay1ms)
    Dummy                                    0x00000607   Thumb Code     8  os.o(i.Dummy)
    GPIOPortC_Handler                        0x00000611   Thumb Code    64  buttons.o(i.GPIOPortC_Handler)
    GPIOPortF_Handler                        0x00000665   Thumb Code    64  buttons.o(i.GPIOPortF_Handler)
    OS_AddAperiodicThread                    0x000006b9   Thumb Code   340  os.o(i.OS_AddAperiodicThread)
    OS_AddPeriodicThread                     0x00000819   Thumb Code   384  os.o(i.OS_AddPeriodicThread)
    OS_AddThread                             0x000009a9   Thumb Code   424  os.o(i.OS_AddThread)
    OS_Aging                                 0x00000b69   Thumb Code   122  os.o(i.OS_Aging)
    OS_Block                                 0x00000be9   Thumb Code   294  os.o(i.OS_Block)
    OS_Error                                 0x00000d25   Thumb Code    60  os.o(i.OS_Error)
    OS_Fifo1_Init                            0x00000da5   Thumb Code    32  os.o(i.OS_Fifo1_Init)
    OS_Fifo2_Init                            0x00000dd9   Thumb Code    32  os.o(i.OS_Fifo2_Init)
    OS_Fifo3_Init                            0x00000e0d   Thumb Code    32  os.o(i.OS_Fifo3_Init)
    OS_Fifo4_Init                            0x00000e41   Thumb Code    32  os.o(i.OS_Fifo4_Init)
    OS_Id                                    0x00000e75   Thumb Code     8  os.o(i.OS_Id)
    OS_Init                                  0x00000e81   Thumb Code   158  os.o(i.OS_Init)
    OS_InitSemaphore                         0x00000f51   Thumb Code    26  os.o(i.OS_InitSemaphore)
    OS_Kill                                  0x00000f6d   Thumb Code   174  os.o(i.OS_Kill)
    OS_KillAperiodic                         0x00001035   Thumb Code   116  os.o(i.OS_KillAperiodic)
    OS_Launch                                0x000010b5   Thumb Code    48  os.o(i.OS_Launch)
    OS_MailBox_Init                          0x000010f1   Thumb Code    20  os.o(i.OS_MailBox_Init)
    OS_MoveThread                            0x0000110d   Thumb Code   184  os.o(i.OS_MoveThread)
    OS_Signal                                0x000011c9   Thumb Code    60  os.o(i.OS_Signal)
    OS_Sleep                                 0x00001209   Thumb Code   228  os.o(i.OS_Sleep)
    OS_SleepCheck                            0x00001301   Thumb Code   102  os.o(i.OS_SleepCheck)
    OS_Suspend                               0x00001371   Thumb Code    18  os.o(i.OS_Suspend)
    OS_Unblock                               0x00001389   Thumb Code   232  os.o(i.OS_Unblock)
    OS_Wait                                  0x00001481   Thumb Code    46  os.o(i.OS_Wait)
    OS_Wakeup                                0x000014b1   Thumb Code   146  os.o(i.OS_Wakeup)
    PLL_Init                                 0x0000154d   Thumb Code   118  pll.o(i.PLL_Init)
    PortF_Init                               0x000015c9   Thumb Code    96  profiler.o(i.PortF_Init)
    RxFifo_Init                              0x00001639   Thumb Code    26  uart.o(i.RxFifo_Init)
    RxFifo_Put                               0x0000165d   Thumb Code    48  uart.o(i.RxFifo_Put)
    RxFifo_Size                              0x00001699   Thumb Code    14  uart.o(i.RxFifo_Size)
    ST7735_FillRect                          0x000016b1   Thumb Code   164  st7735.o(i.ST7735_FillRect)
    ST7735_FillScreen                        0x0000175d   Thumb Code    28  st7735.o(i.ST7735_FillScreen)
    ST7735_InitR                             0x00001781   Thumb Code    98  st7735.o(i.ST7735_InitR)
    ST7735_SetCursor                         0x00001809   Thumb Code    22  st7735.o(i.ST7735_SetCursor)
    ST7735_SetRotation                       0x00001829   Thumb Code   196  st7735.o(i.ST7735_SetRotation)
    SetInitialStack                          0x000018fd   Thumb Code   228  os.o(i.SetInitialStack)
    SleepTest                                0x000019e9   Thumb Code    38  gradproject.o(i.SleepTest)
    SleepingThreads                          0x00001a19   Thumb Code    12  gradproject.o(i.SleepingThreads)
    TCBInit                                  0x00001a25   Thumb Code    76  os.o(i.TCBInit)
    Timer4A_Disable                          0x00001a79   Thumb Code    16  timer4.o(i.Timer4A_Disable)
    Timer4A_Enable                           0x00001a91   Thumb Code    16  timer4.o(i.Timer4A_Enable)
    Timer4A_Handler                          0x00001aa9   Thumb Code   144  timer4.o(i.Timer4A_Handler)
    Timer4_Init                              0x00001b4d   Thumb Code    64  timer4.o(i.Timer4_Init)
    Timer5_Init                              0x00001b9d   Thumb Code    52  timer5.o(i.Timer5_Init)
    TxFifo_Get                               0x00001bdd   Thumb Code    46  uart.o(i.TxFifo_Get)
    TxFifo_Init                              0x00001c19   Thumb Code    26  uart.o(i.TxFifo_Init)
    TxFifo_Put                               0x00001c3d   Thumb Code    48  uart.o(i.TxFifo_Put)
    TxFifo_Size                              0x00001c79   Thumb Code    14  uart.o(i.TxFifo_Size)
    UART0_Handler                            0x00001c91   Thumb Code    82  uart.o(i.UART0_Handler)
    UART_Init                                0x00001ce9   Thumb Code   190  uart.o(i.UART_Init)
    UART_OutChar                             0x00001dc9   Thumb Code    52  uart.o(i.UART_OutChar)
    ferror                                   0x00002105   Thumb Code     8  retarget.o(i.ferror)
    fputc                                    0x0000210d   Thumb Code    16  retarget.o(i.fputc)
    main                                     0x0000211d   Thumb Code    36  gradproject.o(i.main)
    dBfs                                     0x0000283e   Data         512  st7735.o(.constdata)
    Region$$Table$$Base                      0x00002a40   Number         0  anon$$obj.o(Region$$Table)
    Region$$Table$$Limit                     0x00002a60   Number         0  anon$$obj.o(Region$$Table)
    RxPutI                                   0x20000000   Data           4  uart.o(.data)
    RxGetI                                   0x20000004   Data           4  uart.o(.data)
    TxPutI                                   0x20000008   Data           4  uart.o(.data)
    TxGetI                                   0x2000000c   Data           4  uart.o(.data)
    __stdout                                 0x20000010   Data           4  retarget.o(.data)
    __stdin                                  0x20000014   Data           4  retarget.o(.data)
    SW1Task                                  0x20000018   Data           4  buttons.o(.data)
    SW2Task                                  0x2000001c   Data           4  buttons.o(.data)
    BUMPER0Task                              0x20000020   Data           4  buttons.o(.data)
    BUMPER1Task                              0x20000024   Data           4  buttons.o(.data)
    SW1Priority                              0x20000028   Data           1  buttons.o(.data)
    SW2Priority                              0x20000029   Data           1  buttons.o(.data)
    BUMPER0Priority                          0x2000002a   Data           1  buttons.o(.data)
    BUMPER1Priority                          0x2000002b   Data           1  buttons.o(.data)
    BackgroundTask                           0x2000002c   Data           4  timer4.o(.data)
    MaxNumPri                                0x20000030   Data           4  os.o(.data)
    Scheduler                                0x20000034   Data           4  os.o(.data)
    Num4Ground                               0x20000038   Data           4  os.o(.data)
    NumBGround                               0x2000003c   Data           4  os.o(.data)
    NumBlocked                               0x20000040   Data           4  os.o(.data)
    NumActive                                0x20000044   Data           4  os.o(.data)
    RunPt                                    0x20000048   Data           4  os.o(.data)
    FirstBackgroundPt                        0x2000004c   Data           4  os.o(.data)
    PeriodicTask                             0x20000050   Data           4  os.o(.data)
    IRPutPt1                                 0x20000054   Data           4  os.o(.data)
    IRGetPt1                                 0x20000058   Data           4  os.o(.data)
    IRPutPt2                                 0x2000005c   Data           4  os.o(.data)
    IRGetPt2                                 0x20000060   Data           4  os.o(.data)
    IRPutPt3                                 0x20000064   Data           4  os.o(.data)
    IRGetPt3                                 0x20000068   Data           4  os.o(.data)
    IRPutPt4                                 0x2000006c   Data           4  os.o(.data)
    IRGetPt4                                 0x20000070   Data           4  os.o(.data)
    MailBoxData                              0x20000074   Data           4  os.o(.data)
    MsTime                                   0x20000078   Data           4  os.o(.data)
    Sleeping                                 0x2000007c   Data           8  os.o(.data)
    IdleCount                                0x20000084   Data           4  gradproject.o(.data)
    StX                                      0x20000088   Data           4  st7735.o(.data)
    StY                                      0x2000008c   Data           4  st7735.o(.data)
    StTextColor                              0x20000090   Data           2  st7735.o(.data)
    lastj                                    0x20000098   Data           4  st7735.o(.data)
    Messageindex                             0x200000a0   Data           4  st7735.o(.data)
    Ymax                                     0x200000a4   Data           4  st7735.o(.data)
    Ymin                                     0x200000a8   Data           4  st7735.o(.data)
    X                                        0x200000ac   Data           4  st7735.o(.data)
    Yrange                                   0x200000b0   Data           4  st7735.o(.data)
    ForegroundTCBs                           0x200000d4   Data        4896  os.o(.bss)
    BackgroundTCBs                           0x200013f4   Data         280  os.o(.bss)
    Stacks                                   0x2000150c   Data       26112  os.o(.bss)
    CAN0ReceiveFree                          0x2000830c   Data          12  os.o(.bss)
    LCDFree                                  0x20008318   Data          12  os.o(.bss)
    FifoMutex1                               0x20008324   Data          12  os.o(.bss)
    FifoMutex2                               0x20008330   Data          12  os.o(.bss)
    FifoMutex3                               0x2000833c   Data          12  os.o(.bss)
    FifoMutex4                               0x20008348   Data          12  os.o(.bss)
    CurrentSize1                             0x20008354   Data          12  os.o(.bss)
    CurrentSize2                             0x20008360   Data          12  os.o(.bss)
    CurrentSize3                             0x2000836c   Data          12  os.o(.bss)
    CurrentSize4                             0x20008378   Data          12  os.o(.bss)
    DataValid                                0x20008384   Data          12  os.o(.bss)
    BoxFree                                  0x20008390   Data          12  os.o(.bss)
    RxDataAvailable                          0x2000839c   Data          12  os.o(.bss)
    TxRoomLeft                               0x200083a8   Data          12  os.o(.bss)
    DMA_Soft_Sema4                           0x200083b4   Data          12  os.o(.bss)
    DMA_Read_Sema4                           0x200083c0   Data          12  os.o(.bss)
    DMA_Write_Sema4                          0x200083cc   Data          12  os.o(.bss)
    PriorityLists                            0x200083d8   Data          64  os.o(.bss)
    __libspace_start                         0x20008418   Data          96  libspace.o(.bss)
    __temporary_stack_top$libspace           0x20008478   Data           0  libspace.o(.bss)



==============================================================================

Memory Map of the image

  Image Entry point : 0x0000026d

  Load Region LR_1 (Base: 0x00000000, Size: 0x00002b14, Max: 0xffffffff, ABSOLUTE)

    Execution Region ER_RO (Base: 0x00000000, Size: 0x00002a60, Max: 0xffffffff, ABSOLUTE)

    Base Addr    Size         Type   Attr      Idx    E Section Name        Object

    0x00000000   0x00000284   Code   RO            3  * RESET               startup.o
    0x00000284   0x00000008   Code   RO         1843  * !!!main             c_w.l(__main.o)
    0x0000028c   0x00000034   Code   RO         2008    !!!scatter          c_w.l(__scatter.o)
    0x000002c0   0x0000001a   Code   RO         2010    !!handler_copy      c_w.l(__scatter_copy.o)
    0x000002da   0x00000002   PAD
    0x000002dc   0x0000001c   Code   RO         2012    !!handler_zi        c_w.l(__scatter_zi.o)
    0x000002f8   0x00000000   Code   RO         1836    .ARM.Collect$$_printf_percent$$00000000  c_w.l(_printf_percent.o)
    0x000002f8   0x00000004   Code   RO         1852    .ARM.Collect$$_printf_percent$$00000017  c_w.l(_printf_percent_end.o)
    0x000002fc   0x00000002   Code   RO         1881    .ARM.Collect$$libinit$$00000000  c_w.l(libinit.o)
    0x000002fe   0x00000000   Code   RO         1888    .ARM.Collect$$libinit$$00000002  c_w.l(libinit2.o)
    0x000002fe   0x00000000   Code   RO         1891    .ARM.Collect$$libinit$$00000008  c_w.l(libinit2.o)
    0x000002fe   0x00000000   Code   RO         1893    .ARM.Collect$$libinit$$0000000A  c_w.l(libinit2.o)
    0x000002fe   0x00000000   Code   RO         1895    .ARM.Collect$$libinit$$0000000C  c_w.l(libinit2.o)
    0x000002fe   0x00000000   Code   RO         1898    .ARM.Collect$$libinit$$0000000F  c_w.l(libinit2.o)
    0x000002fe   0x00000000   Code   RO         1900    .ARM.Collect$$libinit$$00000011  c_w.l(libinit2.o)
    0x000002fe   0x00000000   Code   RO         1902    .ARM.Collect$$libinit$$00000013  c_w.l(libinit2.o)
    0x000002fe   0x00000000   Code   RO         1904    .ARM.Collect$$libinit$$00000015  c_w.l(libinit2.o)
    0x000002fe   0x00000000   Code   RO         1906    .ARM.Collect$$libinit$$00000017  c_w.l(libinit2.o)
    0x000002fe   0x00000000   Code   RO         1908    .ARM.Collect$$libinit$$00000019  c_w.l(libinit2.o)
    0x000002fe   0x00000000   Code   RO         1910    .ARM.Collect$$libinit$$0000001B  c_w.l(libinit2.o)
    0x000002fe   0x00000000   Code   RO         1912    .ARM.Collect$$libinit$$0000001D  c_w.l(libinit2.o)
    0x000002fe   0x00000000   Code   RO         1914    .ARM.Collect$$libinit$$0000001F  c_w.l(libinit2.o)
    0x000002fe   0x00000000   Code   RO         1916    .ARM.Collect$$libinit$$00000021  c_w.l(libinit2.o)
    0x000002fe   0x00000000   Code   RO         1918    .ARM.Collect$$libinit$$00000023  c_w.l(libinit2.o)
    0x000002fe   0x00000000   Code   RO         1922    .ARM.Collect$$libinit$$0000002A  c_w.l(libinit2.o)
    0x000002fe   0x00000000   Code   RO         1924    .ARM.Collect$$libinit$$0000002C  c_w.l(libinit2.o)
    0x000002fe   0x00000000   Code   RO         1926    .ARM.Collect$$libinit$$0000002E  c_w.l(libinit2.o)
    0x000002fe   0x00000000   Code   RO         1928    .ARM.Collect$$libinit$$00000030  c_w.l(libinit2.o)
    0x000002fe   0x00000002   Code   RO         1929    .ARM.Collect$$libinit$$00000031  c_w.l(libinit2.o)
    0x00000300   0x00000002   Code   RO         1949    .ARM.Collect$$libshutdown$$00000000  c_w.l(libshutdown.o)
    0x00000302   0x00000000   Code   RO         1963    .ARM.Collect$$libshutdown$$00000003  c_w.l(libshutdown2.o)
    0x00000302   0x00000000   Code   RO         1966    .ARM.Collect$$libshutdown$$00000006  c_w.l(libshutdown2.o)
    0x00000302   0x00000000   Code   RO         1969    .ARM.Collect$$libshutdown$$00000009  c_w.l(libshutdown2.o)
    0x00000302   0x00000000   Code   RO         1971    .ARM.Collect$$libshutdown$$0000000B  c_w.l(libshutdown2.o)
    0x00000302   0x00000000   Code   RO         1974    .ARM.Collect$$libshutdown$$0000000E  c_w.l(libshutdown2.o)
    0x00000302   0x00000002   Code   RO         1975    .ARM.Collect$$libshutdown$$0000000F  c_w.l(libshutdown2.o)
    0x00000304   0x00000000   Code   RO         1845    .ARM.Collect$$rtentry$$00000000  c_w.l(rtentry.o)
    0x00000304   0x00000000   Code   RO         1854    .ARM.Collect$$rtentry$$00000002  c_w.l(rtentry2.o)
    0x00000304   0x00000006   Code   RO         1866    .ARM.Collect$$rtentry$$00000004  c_w.l(rtentry4.o)
    0x0000030a   0x00000000   Code   RO         1856    .ARM.Collect$$rtentry$$00000009  c_w.l(rtentry2.o)
    0x0000030a   0x00000004   Code   RO         1857    .ARM.Collect$$rtentry$$0000000A  c_w.l(rtentry2.o)
    0x0000030e   0x00000000   Code   RO         1859    .ARM.Collect$$rtentry$$0000000C  c_w.l(rtentry2.o)
    0x0000030e   0x00000008   Code   RO         1860    .ARM.Collect$$rtentry$$0000000D  c_w.l(rtentry2.o)
    0x00000316   0x00000002   Code   RO         1885    .ARM.Collect$$rtexit$$00000000  c_w.l(rtexit.o)
    0x00000318   0x00000000   Code   RO         1931    .ARM.Collect$$rtexit$$00000002  c_w.l(rtexit2.o)
    0x00000318   0x00000004   Code   RO         1932    .ARM.Collect$$rtexit$$00000003  c_w.l(rtexit2.o)
    0x0000031c   0x00000006   Code   RO         1933    .ARM.Collect$$rtexit$$00000004  c_w.l(rtexit2.o)
    0x00000322   0x00000002   PAD
    0x00000324   0x00000006   Code   RO         1428    .emb_text           st7735.o
    0x0000032a   0x00000002   PAD
    0x0000032c   0x00000030   Code   RO            4    .text               startup.o
    0x0000035c   0x00000130   Code   RO           35    .text               osasm.o
    0x0000048c   0x00000018   Code   RO         1806    .text               c_w.l(noretval__2printf.o)
    0x000004a4   0x00000068   Code   RO         1808    .text               c_w.l(__printf.o)
    0x0000050c   0x00000006   Code   RO         1841    .text               c_w.l(heapauxi.o)
    0x00000512   0x00000002   PAD
    0x00000514   0x00000024   Code   RO         1850    .text               c_w.l(_printf_char_file.o)
    0x00000538   0x00000030   Code   RO         1868    .text               c_w.l(_printf_char_common.o)
    0x00000568   0x0000004a   Code   RO         1870    .text               c_w.l(sys_stackheap_outer.o)
    0x000005b2   0x0000000c   Code   RO         1874    .text               c_w.l(exit.o)
    0x000005be   0x00000002   PAD
    0x000005c0   0x00000008   Code   RO         1882    .text               c_w.l(libspace.o)
    0x000005c8   0x0000000c   Code   RO         1941    .text               c_w.l(sys_exit.o)
    0x000005d4   0x00000002   Code   RO         1952    .text               c_w.l(use_no_semi.o)
    0x000005d6   0x00000000   Code   RO         1954    .text               c_w.l(indicate_semi.o)
    0x000005d6   0x00000002   PAD
    0x000005d8   0x00000018   Code   RO          697    i.ActiveThread      gradproject.o
    0x000005f0   0x00000016   Code   RO         1429    i.Delay1ms          st7735.o
    0x00000606   0x00000008   Code   RO          406    i.Dummy             os.o
    0x0000060e   0x00000002   PAD
    0x00000610   0x00000054   Code   RO          234    i.GPIOPortC_Handler  buttons.o
    0x00000664   0x00000054   Code   RO          235    i.GPIOPortF_Handler  buttons.o
    0x000006b8   0x00000160   Code   RO          407    i.OS_AddAperiodicThread  os.o
    0x00000818   0x00000190   Code   RO          409    i.OS_AddPeriodicThread  os.o
    0x000009a8   0x000001c0   Code   RO          410    i.OS_AddThread      os.o
    0x00000b68   0x00000080   Code   RO          411    i.OS_Aging          os.o
    0x00000be8   0x0000013c   Code   RO          412    i.OS_Block          os.o
    0x00000d24   0x00000080   Code   RO          414    i.OS_Error          os.o
    0x00000da4   0x00000034   Code   RO          416    i.OS_Fifo1_Init     os.o
    0x00000dd8   0x00000034   Code   RO          419    i.OS_Fifo2_Init     os.o
    0x00000e0c   0x00000034   Code   RO          422    i.OS_Fifo3_Init     os.o
    0x00000e40   0x00000034   Code   RO          425    i.OS_Fifo4_Init     os.o
    0x00000e74   0x0000000c   Code   RO          427    i.OS_Id             os.o
    0x00000e80   0x000000d0   Code   RO          428    i.OS_Init           os.o
    0x00000f50   0x0000001a   Code   RO          429    i.OS_InitSemaphore  os.o
    0x00000f6a   0x00000002   PAD
    0x00000f6c   0x000000c8   Code   RO          430    i.OS_Kill           os.o
    0x00001034   0x00000080   Code   RO          431    i.OS_KillAperiodic  os.o
    0x000010b4   0x0000003c   Code   RO          432    i.OS_Launch         os.o
    0x000010f0   0x0000001c   Code   RO          433    i.OS_MailBox_Init   os.o
    0x0000110c   0x000000bc   Code   RO          436    i.OS_MoveThread     os.o
    0x000011c8   0x00000040   Code   RO          438    i.OS_Signal         os.o
    0x00001208   0x000000f8   Code   RO          439    i.OS_Sleep          os.o
    0x00001300   0x00000070   Code   RO          440    i.OS_SleepCheck     os.o
    0x00001370   0x00000018   Code   RO          441    i.OS_Suspend        os.o
    0x00001388   0x000000f8   Code   RO          444    i.OS_Unblock        os.o
    0x00001480   0x0000002e   Code   RO          445    i.OS_Wait           os.o
    0x000014ae   0x00000002   PAD
    0x000014b0   0x0000009c   Code   RO          446    i.OS_Wakeup         os.o
    0x0000154c   0x0000007c   Code   RO           12    i.PLL_Init          pll.o
    0x000015c8   0x00000070   Code   RO          295    i.PortF_Init        profiler.o
    0x00001638   0x00000024   Code   RO           39    i.RxFifo_Init       uart.o
    0x0000165c   0x0000003c   Code   RO           40    i.RxFifo_Put        uart.o
    0x00001698   0x00000018   Code   RO           41    i.RxFifo_Size       uart.o
    0x000016b0   0x000000ac   Code   RO         1443    i.ST7735_FillRect   st7735.o
    0x0000175c   0x00000024   Code   RO         1444    i.ST7735_FillScreen  st7735.o
    0x00001780   0x00000088   Code   RO         1446    i.ST7735_InitR      st7735.o
    0x00001808   0x00000020   Code   RO         1460    i.ST7735_SetCursor  st7735.o
    0x00001828   0x000000d4   Code   RO         1461    i.ST7735_SetRotation  st7735.o
    0x000018fc   0x000000ec   Code   RO          449    i.SetInitialStack   os.o
    0x000019e8   0x00000030   Code   RO          813    i.SleepTest         gradproject.o
    0x00001a18   0x0000000c   Code   RO          814    i.SleepingThreads   gradproject.o
    0x00001a24   0x00000054   Code   RO          450    i.TCBInit           os.o
    0x00001a78   0x00000018   Code   RO          358    i.Timer4A_Disable   timer4.o
    0x00001a90   0x00000018   Code   RO          359    i.Timer4A_Enable    timer4.o
    0x00001aa8   0x000000a4   Code   RO          360    i.Timer4A_Handler   timer4.o
    0x00001b4c   0x00000050   Code   RO          361    i.Timer4_Init       timer4.o
    0x00001b9c   0x00000040   Code   RO          391    i.Timer5_Init       timer5.o
    0x00001bdc   0x0000003c   Code   RO           42    i.TxFifo_Get        uart.o
    0x00001c18   0x00000024   Code   RO           43    i.TxFifo_Init       uart.o
    0x00001c3c   0x0000003c   Code   RO           44    i.TxFifo_Put        uart.o
    0x00001c78   0x00000018   Code   RO           45    i.TxFifo_Size       uart.o
    0x00001c90   0x00000058   Code   RO           46    i.UART0_Handler     uart.o
    0x00001ce8   0x000000e0   Code   RO           52    i.UART_Init         uart.o
    0x00001dc8   0x0000003c   Code   RO           54    i.UART_OutChar      uart.o
    0x00001e04   0x00000056   Code   RO         1464    i.commandList       st7735.o
    0x00001e5a   0x00000002   PAD
    0x00001e5c   0x00000240   Code   RO         1465    i.commonInit        st7735.o
    0x0000209c   0x00000034   Code   RO           60    i.copyHardwareToSoftware  uart.o
    0x000020d0   0x00000034   Code   RO           61    i.copySoftwareToHardware  uart.o
    0x00002104   0x00000008   Code   RO          200    i.ferror            retarget.o
    0x0000210c   0x00000010   Code   RO          202    i.fputc             retarget.o
    0x0000211c   0x00000030   Code   RO          815    i.main              gradproject.o
    0x0000214c   0x00000074   Code   RO         1468    i.setAddrWindow     st7735.o
    0x000021c0   0x0000004c   Code   RO         1469    i.writecommand      st7735.o
    0x0000220c   0x00000050   Code   RO         1470    i.writedata         st7735.o
    0x0000225c   0x000007e2   Data   RO         1472    .constdata          st7735.o
    0x00002a3e   0x00000002   PAD
    0x00002a40   0x00000020   Data   RO         2006    Region$$Table       anon$$obj.o


    Execution Region ER_RW (Base: 0x20000000, Size: 0x000000b4, Max: 0xffffffff, ABSOLUTE)

    Base Addr    Size         Type   Attr      Idx    E Section Name        Object

    0x20000000   0x00000010   Data   RW           63    .data               uart.o
    0x20000010   0x00000008   Data   RW          203    .data               retarget.o
    0x20000018   0x00000014   Data   RW          240    .data               buttons.o
    0x2000002c   0x00000004   Data   RW          362    .data               timer4.o
    0x20000030   0x00000054   Data   RW          452    .data               os.o
    0x20000084   0x00000004   Data   RW          817    .data               gradproject.o
    0x20000088   0x0000002c   Data   RW         1473    .data               st7735.o


    Execution Region ER_ZI (Base: 0x200000b4, Size: 0x000087c4, Max: 0xffffffff, ABSOLUTE)

    Base Addr    Size         Type   Attr      Idx    E Section Name        Object

    0x200000b4   0x00000020   Zero   RW           62    .bss                uart.o
    0x200000d4   0x00008344   Zero   RW          451    .bss                os.o
    0x20008418   0x00000060   Zero   RW         1883    .bss                c_w.l(libspace.o)
    0x20008478   0x00000000   Zero   RW            2    HEAP                startup.o
    0x20008478   0x00000400   Zero   RW            1    STACK               startup.o


==============================================================================

Image component sizes


      Code (inc. data)   RO Data    RW Data    ZI Data      Debug   Object Name

       168         40          0         20          0       1666   buttons.o
       132         26          0          4          0       2378   gradproject.o
      4056        426          0         84      33604      19248   os.o
       304         18          0          0          0        296   osasm.o
       124          6          0          0          0       4635   pll.o
       112         16          0          0          0        417   profiler.o
        24          0          0          8          0       2375   retarget.o
      1550        172       2018         44          0      10945   st7735.o
       692        632          0          0       1024        916   startup.o
       292         52          0          4          0       2264   timer4.o
        64         12          0          0          0        442   timer5.o
       776        144          0         16         32       8571   uart.o

    ----------------------------------------------------------------------
      8304       1544       2052        180      34660      54153   Object Totals
         0          0         32          0          0          0   (incl. Generated)
        10          0          2          0          0          0   (incl. Padding)

    ----------------------------------------------------------------------

      Code (inc. data)   RO Data    RW Data    ZI Data      Debug   Library Member Name

         8          0          0          0          0         68   __main.o
       104          0          0          0          0         84   __printf.o
        52          8          0          0          0          0   __scatter.o
        26          0          0          0          0          0   __scatter_copy.o
        28          0          0          0          0          0   __scatter_zi.o
        48          6          0          0          0         96   _printf_char_common.o
        36          4          0          0          0         80   _printf_char_file.o
         0          0          0          0          0          0   _printf_percent.o
         4          0          0          0          0          0   _printf_percent_end.o
        12          0          0          0          0         72   exit.o
         6          0          0          0          0        152   heapauxi.o
         0          0          0          0          0          0   indicate_semi.o
         2          0          0          0          0          0   libinit.o
         2          0          0          0          0          0   libinit2.o
         2          0          0          0          0          0   libshutdown.o
         2          0          0          0          0          0   libshutdown2.o
         8          4          0          0         96         68   libspace.o
        24          4          0          0          0         84   noretval__2printf.o
         0          0          0          0          0          0   rtentry.o
        12          0          0          0          0          0   rtentry2.o
         6          0          0          0          0          0   rtentry4.o
         2          0          0          0          0          0   rtexit.o
        10          0          0          0          0          0   rtexit2.o
        12          4          0          0          0         68   sys_exit.o
        74          0          0          0          0         80   sys_stackheap_outer.o
         2          0          0          0          0         68   use_no_semi.o

    ----------------------------------------------------------------------
       492         30          0          0         96        920   Library Totals
        10          0          0          0          0          0   (incl. Padding)

    ----------------------------------------------------------------------

      Code (inc. data)   RO Data    RW Data    ZI Data      Debug   Library Name

       482         30          0          0         96        920   c_w.l

    ----------------------------------------------------------------------
       492         30          0          0         96        920   Library Totals

    ----------------------------------------------------------------------

==============================================================================


      Code (inc. data)   RO Data    RW Data    ZI Data      Debug   

      8796       1574       2052        180      34756      51225   Grand Totals
      8796       1574       2052        180      34756      51225   ELF Image Totals
      8796       1574       2052        180          0          0   ROM Totals

==============================================================================

    Total RO  Size (Code + RO Data)                10848 (  10.59kB)
    Total RW  Size (RW Data + ZI Data)             34936 (  34.12kB)
    Total ROM Size (Code + RO Data + RW Data)      11028 (  10.77kB)

==============================================================================

